{
  "_format": "hh-sol-artifact-1",
  "contractName": "IVIRSE",
  "sourceName": "src/solidity/contracts/IVIRSE.sol",
  "abi": [
    {
      "inputs": [],
      "stateMutability": "nonpayable",
      "type": "constructor"
    },
    {
      "anonymous": false,
      "inputs": [
        {
          "indexed": true,
          "internalType": "address",
          "name": "owner",
          "type": "address"
        },
        {
          "indexed": true,
          "internalType": "address",
          "name": "spender",
          "type": "address"
        },
        {
          "indexed": false,
          "internalType": "uint256",
          "name": "value",
          "type": "uint256"
        }
      ],
      "name": "Approval",
      "type": "event"
    },
    {
      "anonymous": false,
      "inputs": [
        {
          "indexed": true,
          "internalType": "address",
          "name": "_minterAddr",
          "type": "address"
        }
      ],
      "name": "MinterAdded",
      "type": "event"
    },
    {
      "anonymous": false,
      "inputs": [
        {
          "indexed": true,
          "internalType": "address",
          "name": "_minterAddr",
          "type": "address"
        }
      ],
      "name": "MinterRemoved",
      "type": "event"
    },
    {
      "anonymous": false,
      "inputs": [
        {
          "indexed": true,
          "internalType": "address",
          "name": "previousOwner",
          "type": "address"
        },
        {
          "indexed": true,
          "internalType": "address",
          "name": "newOwner",
          "type": "address"
        }
      ],
      "name": "OwnershipTransferred",
      "type": "event"
    },
    {
      "anonymous": false,
      "inputs": [
        {
          "indexed": true,
          "internalType": "address",
          "name": "from",
          "type": "address"
        },
        {
          "indexed": true,
          "internalType": "address",
          "name": "to",
          "type": "address"
        },
        {
          "indexed": false,
          "internalType": "uint256",
          "name": "value",
          "type": "uint256"
        }
      ],
      "name": "Transfer",
      "type": "event"
    },
    {
      "inputs": [
        {
          "internalType": "address",
          "name": "_minterAddr",
          "type": "address"
        }
      ],
      "name": "addMinter",
      "outputs": [],
      "stateMutability": "nonpayable",
      "type": "function"
    },
    {
      "inputs": [
        {
          "internalType": "address",
          "name": "owner",
          "type": "address"
        },
        {
          "internalType": "address",
          "name": "spender",
          "type": "address"
        }
      ],
      "name": "allowance",
      "outputs": [
        {
          "internalType": "uint256",
          "name": "",
          "type": "uint256"
        }
      ],
      "stateMutability": "view",
      "type": "function"
    },
    {
      "inputs": [
        {
          "internalType": "address",
          "name": "spender",
          "type": "address"
        },
        {
          "internalType": "uint256",
          "name": "amount",
          "type": "uint256"
        }
      ],
      "name": "approve",
      "outputs": [
        {
          "internalType": "bool",
          "name": "",
          "type": "bool"
        }
      ],
      "stateMutability": "nonpayable",
      "type": "function"
    },
    {
      "inputs": [
        {
          "internalType": "address[]",
          "name": "_listAcc",
          "type": "address[]"
        },
        {
          "internalType": "uint256[]",
          "name": "_listAmount",
          "type": "uint256[]"
        }
      ],
      "name": "approveList",
      "outputs": [],
      "stateMutability": "nonpayable",
      "type": "function"
    },
    {
      "inputs": [
        {
          "internalType": "address",
          "name": "account",
          "type": "address"
        }
      ],
      "name": "balanceOf",
      "outputs": [
        {
          "internalType": "uint256",
          "name": "",
          "type": "uint256"
        }
      ],
      "stateMutability": "view",
      "type": "function"
    },
    {
      "inputs": [
        {
          "internalType": "uint256",
          "name": "amount",
          "type": "uint256"
        }
      ],
      "name": "burn",
      "outputs": [],
      "stateMutability": "nonpayable",
      "type": "function"
    },
    {
      "inputs": [],
      "name": "decimals",
      "outputs": [
        {
          "internalType": "uint8",
          "name": "",
          "type": "uint8"
        }
      ],
      "stateMutability": "view",
      "type": "function"
    },
    {
      "inputs": [
        {
          "internalType": "address",
          "name": "spender",
          "type": "address"
        },
        {
          "internalType": "uint256",
          "name": "subtractedValue",
          "type": "uint256"
        }
      ],
      "name": "decreaseAllowance",
      "outputs": [
        {
          "internalType": "bool",
          "name": "",
          "type": "bool"
        }
      ],
      "stateMutability": "nonpayable",
      "type": "function"
    },
    {
      "inputs": [],
      "name": "getMinters",
      "outputs": [
        {
          "internalType": "address[]",
          "name": "",
          "type": "address[]"
        }
      ],
      "stateMutability": "view",
      "type": "function"
    },
    {
      "inputs": [
        {
          "internalType": "address",
          "name": "spender",
          "type": "address"
        },
        {
          "internalType": "uint256",
          "name": "addedValue",
          "type": "uint256"
        }
      ],
      "name": "increaseAllowance",
      "outputs": [
        {
          "internalType": "bool",
          "name": "",
          "type": "bool"
        }
      ],
      "stateMutability": "nonpayable",
      "type": "function"
    },
    {
      "inputs": [],
      "name": "maxSupply",
      "outputs": [
        {
          "internalType": "uint256",
          "name": "",
          "type": "uint256"
        }
      ],
      "stateMutability": "view",
      "type": "function"
    },
    {
      "inputs": [
        {
          "internalType": "address",
          "name": "account",
          "type": "address"
        },
        {
          "internalType": "uint256",
          "name": "amount",
          "type": "uint256"
        }
      ],
      "name": "mint",
      "outputs": [],
      "stateMutability": "nonpayable",
      "type": "function"
    },
    {
      "inputs": [
        {
          "internalType": "address",
          "name": "account",
          "type": "address"
        },
        {
          "internalType": "uint256",
          "name": "amount",
          "type": "uint256"
        }
      ],
      "name": "mintConsensus",
      "outputs": [],
      "stateMutability": "nonpayable",
      "type": "function"
    },
    {
      "inputs": [
        {
          "internalType": "address",
          "name": "",
          "type": "address"
        }
      ],
      "name": "minter",
      "outputs": [
        {
          "internalType": "bool",
          "name": "",
          "type": "bool"
        }
      ],
      "stateMutability": "view",
      "type": "function"
    },
    {
      "inputs": [],
      "name": "minterConsensus",
      "outputs": [],
      "stateMutability": "nonpayable",
      "type": "function"
    },
    {
      "inputs": [
        {
          "internalType": "address",
          "name": "",
          "type": "address"
        }
      ],
      "name": "minterConsent",
      "outputs": [
        {
          "internalType": "bool",
          "name": "",
          "type": "bool"
        }
      ],
      "stateMutability": "view",
      "type": "function"
    },
    {
      "inputs": [],
      "name": "minterReject",
      "outputs": [],
      "stateMutability": "nonpayable",
      "type": "function"
    },
    {
      "inputs": [],
      "name": "name",
      "outputs": [
        {
          "internalType": "string",
          "name": "",
          "type": "string"
        }
      ],
      "stateMutability": "view",
      "type": "function"
    },
    {
      "inputs": [],
      "name": "owner",
      "outputs": [
        {
          "internalType": "address",
          "name": "",
          "type": "address"
        }
      ],
      "stateMutability": "view",
      "type": "function"
    },
    {
      "inputs": [
        {
          "internalType": "address",
          "name": "_minterAddr",
          "type": "address"
        }
      ],
      "name": "removeMinter",
      "outputs": [],
      "stateMutability": "nonpayable",
      "type": "function"
    },
    {
      "inputs": [],
      "name": "renounceOwnership",
      "outputs": [],
      "stateMutability": "nonpayable",
      "type": "function"
    },
    {
      "inputs": [],
      "name": "symbol",
      "outputs": [
        {
          "internalType": "string",
          "name": "",
          "type": "string"
        }
      ],
      "stateMutability": "view",
      "type": "function"
    },
    {
      "inputs": [],
      "name": "totalSupply",
      "outputs": [
        {
          "internalType": "uint256",
          "name": "",
          "type": "uint256"
        }
      ],
      "stateMutability": "view",
      "type": "function"
    },
    {
      "inputs": [
        {
          "internalType": "address",
          "name": "to",
          "type": "address"
        },
        {
          "internalType": "uint256",
          "name": "amount",
          "type": "uint256"
        }
      ],
      "name": "transfer",
      "outputs": [
        {
          "internalType": "bool",
          "name": "",
          "type": "bool"
        }
      ],
      "stateMutability": "nonpayable",
      "type": "function"
    },
    {
      "inputs": [
        {
          "internalType": "address",
          "name": "from",
          "type": "address"
        },
        {
          "internalType": "address",
          "name": "to",
          "type": "address"
        },
        {
          "internalType": "uint256",
          "name": "amount",
          "type": "uint256"
        }
      ],
      "name": "transferFrom",
      "outputs": [
        {
          "internalType": "bool",
          "name": "",
          "type": "bool"
        }
      ],
      "stateMutability": "nonpayable",
      "type": "function"
    },
    {
      "inputs": [
        {
          "internalType": "address",
          "name": "newOwner",
          "type": "address"
        }
      ],
      "name": "transferOwnership",
      "outputs": [],
      "stateMutability": "nonpayable",
      "type": "function"
    }
  ],
  "bytecode": "0x60806040523480156200001157600080fd5b506040518060400160405280600a81526020017f495649525345436f696e000000000000000000000000000000000000000000008152506040518060400160405280600381526020017f494849000000000000000000000000000000000000000000000000000000000081525081600390805190602001906200009692919062000495565b508060049080519060200190620000af92919062000495565b505050620000d2620000c66200012560201b60201c565b6200012d60201b60201c565b60006012600a620000e4919062000643565b9050806334fb5e38620000f8919062000780565b6006819055506200011e620001126200012560201b60201c565b620001f360201b60201c565b50620008de565b600033905090565b6000600560009054906101000a900473ffffffffffffffffffffffffffffffffffffffff16905081600560006101000a81548173ffffffffffffffffffffffffffffffffffffffff021916908373ffffffffffffffffffffffffffffffffffffffff1602179055508173ffffffffffffffffffffffffffffffffffffffff168173ffffffffffffffffffffffffffffffffffffffff167f8be0079c531659141344cd1fd0a4f28419497f9722a3daafe3b4186f6b6457e060405160405180910390a35050565b620002036200012560201b60201c565b73ffffffffffffffffffffffffffffffffffffffff16620002296200046b60201b60201c565b73ffffffffffffffffffffffffffffffffffffffff161462000282576040517f08c379a00000000000000000000000000000000000000000000000000000000081526004016200027990620005b5565b60405180910390fd5b600860008273ffffffffffffffffffffffffffffffffffffffff1673ffffffffffffffffffffffffffffffffffffffff16815260200190815260200160002060009054906101000a900460ff161562000312576040517f08c379a0000000000000000000000000000000000000000000000000000000008152600401620003099062000593565b60405180910390fd5b600a819080600181540180825580915050600190039060005260206000200160009091909190916101000a81548173ffffffffffffffffffffffffffffffffffffffff021916908373ffffffffffffffffffffffffffffffffffffffff1602179055506001600860008373ffffffffffffffffffffffffffffffffffffffff1673ffffffffffffffffffffffffffffffffffffffff16815260200190815260200160002060006101000a81548160ff0219169083151502179055506000600960008373ffffffffffffffffffffffffffffffffffffffff1673ffffffffffffffffffffffffffffffffffffffff16815260200190815260200160002060006101000a81548160ff0219169083151502179055508073ffffffffffffffffffffffffffffffffffffffff167f6ae172837ea30b801fbfcdd4108aa1d5bf8ff775444fd70256b44e6bf3dfc3f660405160405180910390a250565b6000600560009054906101000a900473ffffffffffffffffffffffffffffffffffffffff16905090565b828054620004a390620007eb565b90600052602060002090601f016020900481019282620004c7576000855562000513565b82601f10620004e257805160ff191683800117855562000513565b8280016001018555821562000513579182015b8281111562000512578251825591602001919060010190620004f5565b5b50905062000522919062000526565b5090565b5b808211156200054157600081600090555060010162000527565b5090565b600062000554600983620005d7565b915062000561826200088c565b602082019050919050565b60006200057b602083620005d7565b91506200058882620008b5565b602082019050919050565b60006020820190508181036000830152620005ae8162000545565b9050919050565b60006020820190508181036000830152620005d0816200056c565b9050919050565b600082825260208201905092915050565b6000808291508390505b60018511156200063a5780860481111562000612576200061162000821565b5b6001851615620006225780820291505b808102905062000632856200087f565b9450620005f2565b94509492505050565b60006200065082620007e1565b91506200065d83620007e1565b92506200068c7fffffffffffffffffffffffffffffffffffffffffffffffffffffffffffffffff848462000694565b905092915050565b600082620006a6576001905062000779565b81620006b6576000905062000779565b8160018114620006cf5760028114620006da5762000710565b600191505062000779565b60ff841115620006ef57620006ee62000821565b5b8360020a91508482111562000709576200070862000821565b5b5062000779565b5060208310610133831016604e8410600b84101617156200074a5782820a90508381111562000744576200074362000821565b5b62000779565b620007598484846001620005e8565b9250905081840481111562000773576200077262000821565b5b81810290505b9392505050565b60006200078d82620007e1565b91506200079a83620007e1565b9250817fffffffffffffffffffffffffffffffffffffffffffffffffffffffffffffffff0483118215151615620007d657620007d562000821565b5b828202905092915050565b6000819050919050565b600060028204905060018216806200080457607f821691505b602082108114156200081b576200081a62000850565b5b50919050565b7f4e487b7100000000000000000000000000000000000000000000000000000000600052601160045260246000fd5b7f4e487b7100000000000000000000000000000000000000000000000000000000600052602260045260246000fd5b60008160011c9050919050565b7f4973206d696e7465720000000000000000000000000000000000000000000000600082015250565b7f4f776e61626c653a2063616c6c6572206973206e6f7420746865206f776e6572600082015250565b6133a880620008ee6000396000f3fe608060405234801561001057600080fd5b506004361061018e5760003560e01c8063715018a6116100de578063a5c8ebdd11610097578063dd62ed3e11610071578063dd62ed3e14610497578063f1f03e3c146104c7578063f2fde38b146104d1578063f50435ee146104ed5761018e565b8063a5c8ebdd14610419578063a9059cbb14610449578063d5abeb01146104795761018e565b8063715018a61461036b578063806ca622146103755780638da5cb5b1461039157806395d89b41146103af578063983b2d56146103cd578063a457c2d7146103e95761018e565b8063395093511161014b57806340c10f191161012557806340c10f19146102e557806342966c68146103015780636b32810b1461031d57806370a082311461033b5761018e565b806339509351146102695780633cd81842146102995780633dd08c38146102b55761018e565b806306fdde0314610193578063095ea7b3146101b157806318160ddd146101e157806323b872dd146101ff5780633092afd51461022f578063313ce5671461024b575b600080fd5b61019b6104f7565b6040516101a891906128fa565b60405180910390f35b6101cb60048036038101906101c69190612461565b610589565b6040516101d891906128df565b60405180910390f35b6101e96105ac565b6040516101f69190612b5c565b60405180910390f35b61021960048036038101906102149190612412565b6105b6565b60405161022691906128df565b60405180910390f35b610249600480360381019061024491906123ad565b6105e5565b005b610253610aa4565b6040516102609190612b77565b60405180910390f35b610283600480360381019061027e9190612461565b610aad565b60405161029091906128df565b60405180910390f35b6102b360048036038101906102ae919061249d565b610b57565b005b6102cf60048036038101906102ca91906123ad565b610c4a565b6040516102dc91906128df565b60405180910390f35b6102ff60048036038101906102fa9190612461565b610c6a565b005b61031b60048036038101906103169190612509565b610d54565b005b610325610d68565b60405161033291906128bd565b60405180910390f35b610355600480360381019061035091906123ad565b610df6565b6040516103629190612b5c565b60405180910390f35b610373610e3e565b005b61038f600480360381019061038a9190612461565b610ec6565b005b6103996111c2565b6040516103a691906128a2565b60405180910390f35b6103b76111ec565b6040516103c491906128fa565b60405180910390f35b6103e760048036038101906103e291906123ad565b61127e565b005b61040360048036038101906103fe9190612461565b6114e0565b60405161041091906128df565b60405180910390f35b610433600480360381019061042e91906123ad565b6115ca565b60405161044091906128df565b60405180910390f35b610463600480360381019061045e9190612461565b6115ea565b60405161047091906128df565b60405180910390f35b61048161160d565b60405161048e9190612b5c565b60405180910390f35b6104b160048036038101906104ac91906123d6565b611617565b6040516104be9190612b5c565b60405180910390f35b6104cf61169e565b005b6104eb60048036038101906104e691906123ad565b61178b565b005b6104f5611883565b005b60606003805461050690612d76565b80601f016020809104026020016040519081016040528092919081815260200182805461053290612d76565b801561057f5780601f106105545761010080835404028352916020019161057f565b820191906000526020600020905b81548152906001019060200180831161056257829003601f168201915b5050505050905090565b600080610594611970565b90506105a1818585611978565b600191505092915050565b6000600254905090565b6000806105c1611970565b90506105ce858285611b43565b6105d9858585611bcf565b60019150509392505050565b6105ed611970565b73ffffffffffffffffffffffffffffffffffffffff1661060b6111c2565b73ffffffffffffffffffffffffffffffffffffffff1614610661576040517f08c379a000000000000000000000000000000000000000000000000000000000815260040161065890612a7c565b60405180910390fd5b600860008273ffffffffffffffffffffffffffffffffffffffff1673ffffffffffffffffffffffffffffffffffffffff16815260200190815260200160002060009054906101000a900460ff166106ed576040517f08c379a00000000000000000000000000000000000000000000000000000000081526004016106e490612a3c565b60405180910390fd5b6000600860008373ffffffffffffffffffffffffffffffffffffffff1673ffffffffffffffffffffffffffffffffffffffff16815260200190815260200160002060006101000a81548160ff0219169083151502179055506001600960008373ffffffffffffffffffffffffffffffffffffffff1673ffffffffffffffffffffffffffffffffffffffff16815260200190815260200160002060006101000a81548160ff0219169083151502179055508073ffffffffffffffffffffffffffffffffffffffff167fe94479a9f7e1952cc78f2d6baab678adc1b772d936c6583def489e524cb6669260405160405180910390a26000805b600a80549050821015610a9f57600a828154811061082b577f4e487b7100000000000000000000000000000000000000000000000000000000600052603260045260246000fd5b9060005260206000200160009054906101000a900473ffffffffffffffffffffffffffffffffffffffff169050600860008273ffffffffffffffffffffffffffffffffffffffff1673ffffffffffffffffffffffffffffffffffffffff16815260200190815260200160002060009054906101000a900460ff16610a8b57600a6001600a805490506108bd9190612cba565b815481106108f4577f4e487b7100000000000000000000000000000000000000000000000000000000600052603260045260246000fd5b9060005260206000200160009054906101000a900473ffffffffffffffffffffffffffffffffffffffff16600a8381548110610959577f4e487b7100000000000000000000000000000000000000000000000000000000600052603260045260246000fd5b9060005260206000200160006101000a81548173ffffffffffffffffffffffffffffffffffffffff021916908373ffffffffffffffffffffffffffffffffffffffff160217905550600a6001600a805490506109b59190612cba565b815481106109ec577f4e487b7100000000000000000000000000000000000000000000000000000000600052603260045260246000fd5b9060005260206000200160006101000a81549073ffffffffffffffffffffffffffffffffffffffff0219169055600a805480610a51577f4e487b7100000000000000000000000000000000000000000000000000000000600052603160045260246000fd5b6001900381819060005260206000200160006101000a81549073ffffffffffffffffffffffffffffffffffffffff02191690559055610a9a565b8180610a9690612dd9565b9250505b6107e4565b505050565b60006012905090565b600080610ab8611970565b9050610b4c818585600160008673ffffffffffffffffffffffffffffffffffffffff1673ffffffffffffffffffffffffffffffffffffffff16815260200190815260200160002060008973ffffffffffffffffffffffffffffffffffffffff1673ffffffffffffffffffffffffffffffffffffffff16815260200190815260200160002054610b479190612c64565b611978565b600191505092915050565b8051825114610b9b576040517f08c379a0000000000000000000000000000000000000000000000000000000008152600401610b929061295c565b60405180910390fd5b60005b8251811015610c4557610c31838281518110610be3577f4e487b7100000000000000000000000000000000000000000000000000000000600052603260045260246000fd5b6020026020010151838381518110610c24577f4e487b7100000000000000000000000000000000000000000000000000000000600052603260045260246000fd5b6020026020010151610589565b508080610c3d90612dd9565b915050610b9e565b505050565b60086020528060005260406000206000915054906101000a900460ff1681565b610c72611970565b73ffffffffffffffffffffffffffffffffffffffff16610c906111c2565b73ffffffffffffffffffffffffffffffffffffffff1614610ce6576040517f08c379a0000000000000000000000000000000000000000000000000000000008152600401610cdd90612a7c565b60405180910390fd5b610cee6105ac565b60078190555060065481600754610d059190612c64565b1115610d46576040517f08c379a0000000000000000000000000000000000000000000000000000000008152600401610d3d90612a5c565b60405180910390fd5b610d508282611e50565b5050565b610d65610d5f611970565b82611fb0565b50565b6060600a805480602002602001604051908101604052809291908181526020018280548015610dec57602002820191906000526020600020905b8160009054906101000a900473ffffffffffffffffffffffffffffffffffffffff1673ffffffffffffffffffffffffffffffffffffffff1681526020019060010190808311610da2575b5050505050905090565b60008060008373ffffffffffffffffffffffffffffffffffffffff1673ffffffffffffffffffffffffffffffffffffffff168152602001908152602001600020549050919050565b610e46611970565b73ffffffffffffffffffffffffffffffffffffffff16610e646111c2565b73ffffffffffffffffffffffffffffffffffffffff1614610eba576040517f08c379a0000000000000000000000000000000000000000000000000000000008152600401610eb190612a7c565b60405180910390fd5b610ec46000612187565b565b600860003373ffffffffffffffffffffffffffffffffffffffff1673ffffffffffffffffffffffffffffffffffffffff16815260200190815260200160002060009054906101000a900460ff16610f52576040517f08c379a0000000000000000000000000000000000000000000000000000000008152600401610f49906129fc565b60405180910390fd5b610f5a6105ac565b60078190555060065481600754610f719190612c64565b1115610fb2576040517f08c379a0000000000000000000000000000000000000000000000000000000008152600401610fa990612a5c565b60405180910390fd5b6000806000600a805490509050600092505b808310156110d257600a8381548110611006577f4e487b7100000000000000000000000000000000000000000000000000000000600052603260045260246000fd5b9060005260206000200160009054906101000a900473ffffffffffffffffffffffffffffffffffffffff169150600960008373ffffffffffffffffffffffffffffffffffffffff1673ffffffffffffffffffffffffffffffffffffffff16815260200190815260200160002060009054906101000a900460ff166110bf576040517f08c379a00000000000000000000000000000000000000000000000000000000081526004016110b690612adc565b60405180910390fd5b82806110ca90612dd9565b935050610fc4565b6110dc8585611e50565b600092505b808310156111bb57600a8381548110611123577f4e487b7100000000000000000000000000000000000000000000000000000000600052603260045260246000fd5b9060005260206000200160009054906101000a900473ffffffffffffffffffffffffffffffffffffffff1691506000600960008473ffffffffffffffffffffffffffffffffffffffff1673ffffffffffffffffffffffffffffffffffffffff16815260200190815260200160002060006101000a81548160ff02191690831515021790555082806111b390612dd9565b9350506110e1565b5050505050565b6000600560009054906101000a900473ffffffffffffffffffffffffffffffffffffffff16905090565b6060600480546111fb90612d76565b80601f016020809104026020016040519081016040528092919081815260200182805461122790612d76565b80156112745780601f1061124957610100808354040283529160200191611274565b820191906000526020600020905b81548152906001019060200180831161125757829003601f168201915b5050505050905090565b611286611970565b73ffffffffffffffffffffffffffffffffffffffff166112a46111c2565b73ffffffffffffffffffffffffffffffffffffffff16146112fa576040517f08c379a00000000000000000000000000000000000000000000000000000000081526004016112f190612a7c565b60405180910390fd5b600860008273ffffffffffffffffffffffffffffffffffffffff1673ffffffffffffffffffffffffffffffffffffffff16815260200190815260200160002060009054906101000a900460ff1615611387576040517f08c379a000000000000000000000000000000000000000000000000000000000815260040161137e90612a1c565b60405180910390fd5b600a819080600181540180825580915050600190039060005260206000200160009091909190916101000a81548173ffffffffffffffffffffffffffffffffffffffff021916908373ffffffffffffffffffffffffffffffffffffffff1602179055506001600860008373ffffffffffffffffffffffffffffffffffffffff1673ffffffffffffffffffffffffffffffffffffffff16815260200190815260200160002060006101000a81548160ff0219169083151502179055506000600960008373ffffffffffffffffffffffffffffffffffffffff1673ffffffffffffffffffffffffffffffffffffffff16815260200190815260200160002060006101000a81548160ff0219169083151502179055508073ffffffffffffffffffffffffffffffffffffffff167f6ae172837ea30b801fbfcdd4108aa1d5bf8ff775444fd70256b44e6bf3dfc3f660405160405180910390a250565b6000806114eb611970565b90506000600160008373ffffffffffffffffffffffffffffffffffffffff1673ffffffffffffffffffffffffffffffffffffffff16815260200190815260200160002060008673ffffffffffffffffffffffffffffffffffffffff1673ffffffffffffffffffffffffffffffffffffffff168152602001908152602001600020549050838110156115b1576040517f08c379a00000000000000000000000000000000000000000000000000000000081526004016115a890612b1c565b60405180910390fd5b6115be8286868403611978565b60019250505092915050565b60096020528060005260406000206000915054906101000a900460ff1681565b6000806115f5611970565b9050611602818585611bcf565b600191505092915050565b6000600654905090565b6000600160008473ffffffffffffffffffffffffffffffffffffffff1673ffffffffffffffffffffffffffffffffffffffff16815260200190815260200160002060008373ffffffffffffffffffffffffffffffffffffffff1673ffffffffffffffffffffffffffffffffffffffff16815260200190815260200160002054905092915050565b600860003373ffffffffffffffffffffffffffffffffffffffff1673ffffffffffffffffffffffffffffffffffffffff16815260200190815260200160002060009054906101000a900460ff1661172a576040517f08c379a0000000000000000000000000000000000000000000000000000000008152600401611721906129fc565b60405180910390fd5b600160096000611738611970565b73ffffffffffffffffffffffffffffffffffffffff1673ffffffffffffffffffffffffffffffffffffffff16815260200190815260200160002060006101000a81548160ff021916908315150217905550565b611793611970565b73ffffffffffffffffffffffffffffffffffffffff166117b16111c2565b73ffffffffffffffffffffffffffffffffffffffff1614611807576040517f08c379a00000000000000000000000000000000000000000000000000000000081526004016117fe90612a7c565b60405180910390fd5b600073ffffffffffffffffffffffffffffffffffffffff168173ffffffffffffffffffffffffffffffffffffffff161415611877576040517f08c379a000000000000000000000000000000000000000000000000000000000815260040161186e9061297c565b60405180910390fd5b61188081612187565b50565b600860003373ffffffffffffffffffffffffffffffffffffffff1673ffffffffffffffffffffffffffffffffffffffff16815260200190815260200160002060009054906101000a900460ff1661190f576040517f08c379a0000000000000000000000000000000000000000000000000000000008152600401611906906129fc565b60405180910390fd5b60006009600061191d611970565b73ffffffffffffffffffffffffffffffffffffffff1673ffffffffffffffffffffffffffffffffffffffff16815260200190815260200160002060006101000a81548160ff021916908315150217905550565b600033905090565b600073ffffffffffffffffffffffffffffffffffffffff168373ffffffffffffffffffffffffffffffffffffffff1614156119e8576040517f08c379a00000000000000000000000000000000000000000000000000000000081526004016119df90612afc565b60405180910390fd5b600073ffffffffffffffffffffffffffffffffffffffff168273ffffffffffffffffffffffffffffffffffffffff161415611a58576040517f08c379a0000000000000000000000000000000000000000000000000000000008152600401611a4f9061299c565b60405180910390fd5b80600160008573ffffffffffffffffffffffffffffffffffffffff1673ffffffffffffffffffffffffffffffffffffffff16815260200190815260200160002060008473ffffffffffffffffffffffffffffffffffffffff1673ffffffffffffffffffffffffffffffffffffffff168152602001908152602001600020819055508173ffffffffffffffffffffffffffffffffffffffff168373ffffffffffffffffffffffffffffffffffffffff167f8c5be1e5ebec7d5bd14f71427d1e84f3dd0314c0f7b2291e5b200ac8c7c3b92583604051611b369190612b5c565b60405180910390a3505050565b6000611b4f8484611617565b90507fffffffffffffffffffffffffffffffffffffffffffffffffffffffffffffffff8114611bc95781811015611bbb576040517f08c379a0000000000000000000000000000000000000000000000000000000008152600401611bb2906129bc565b60405180910390fd5b611bc88484848403611978565b5b50505050565b600073ffffffffffffffffffffffffffffffffffffffff168373ffffffffffffffffffffffffffffffffffffffff161415611c3f576040517f08c379a0000000000000000000000000000000000000000000000000000000008152600401611c3690612abc565b60405180910390fd5b600073ffffffffffffffffffffffffffffffffffffffff168273ffffffffffffffffffffffffffffffffffffffff161415611caf576040517f08c379a0000000000000000000000000000000000000000000000000000000008152600401611ca69061291c565b60405180910390fd5b611cba83838361224d565b60008060008573ffffffffffffffffffffffffffffffffffffffff1673ffffffffffffffffffffffffffffffffffffffff16815260200190815260200160002054905081811015611d40576040517f08c379a0000000000000000000000000000000000000000000000000000000008152600401611d37906129dc565b60405180910390fd5b8181036000808673ffffffffffffffffffffffffffffffffffffffff1673ffffffffffffffffffffffffffffffffffffffff16815260200190815260200160002081905550816000808573ffffffffffffffffffffffffffffffffffffffff1673ffffffffffffffffffffffffffffffffffffffff1681526020019081526020016000206000828254611dd39190612c64565b925050819055508273ffffffffffffffffffffffffffffffffffffffff168473ffffffffffffffffffffffffffffffffffffffff167fddf252ad1be2c89b69c2b068fc378daa952ba7f163c4a11628f55a4df523b3ef84604051611e379190612b5c565b60405180910390a3611e4a848484612252565b50505050565b600073ffffffffffffffffffffffffffffffffffffffff168273ffffffffffffffffffffffffffffffffffffffff161415611ec0576040517f08c379a0000000000000000000000000000000000000000000000000000000008152600401611eb790612b3c565b60405180910390fd5b611ecc6000838361224d565b8060026000828254611ede9190612c64565b92505081905550806000808473ffffffffffffffffffffffffffffffffffffffff1673ffffffffffffffffffffffffffffffffffffffff1681526020019081526020016000206000828254611f339190612c64565b925050819055508173ffffffffffffffffffffffffffffffffffffffff16600073ffffffffffffffffffffffffffffffffffffffff167fddf252ad1be2c89b69c2b068fc378daa952ba7f163c4a11628f55a4df523b3ef83604051611f989190612b5c565b60405180910390a3611fac60008383612252565b5050565b600073ffffffffffffffffffffffffffffffffffffffff168273ffffffffffffffffffffffffffffffffffffffff161415612020576040517f08c379a000000000000000000000000000000000000000000000000000000000815260040161201790612a9c565b60405180910390fd5b61202c8260008361224d565b60008060008473ffffffffffffffffffffffffffffffffffffffff1673ffffffffffffffffffffffffffffffffffffffff168152602001908152602001600020549050818110156120b2576040517f08c379a00000000000000000000000000000000000000000000000000000000081526004016120a99061293c565b60405180910390fd5b8181036000808573ffffffffffffffffffffffffffffffffffffffff1673ffffffffffffffffffffffffffffffffffffffff1681526020019081526020016000208190555081600260008282546121099190612cba565b92505081905550600073ffffffffffffffffffffffffffffffffffffffff168373ffffffffffffffffffffffffffffffffffffffff167fddf252ad1be2c89b69c2b068fc378daa952ba7f163c4a11628f55a4df523b3ef8460405161216e9190612b5c565b60405180910390a361218283600084612252565b505050565b6000600560009054906101000a900473ffffffffffffffffffffffffffffffffffffffff16905081600560006101000a81548173ffffffffffffffffffffffffffffffffffffffff021916908373ffffffffffffffffffffffffffffffffffffffff1602179055508173ffffffffffffffffffffffffffffffffffffffff168173ffffffffffffffffffffffffffffffffffffffff167f8be0079c531659141344cd1fd0a4f28419497f9722a3daafe3b4186f6b6457e060405160405180910390a35050565b505050565b505050565b600061226a61226584612bb7565b612b92565b9050808382526020820190508285602086028201111561228957600080fd5b60005b858110156122b9578161229f888261232f565b84526020840193506020830192505060018101905061228c565b5050509392505050565b60006122d66122d184612be3565b612b92565b905080838252602082019050828560208602820111156122f557600080fd5b60005b85811015612325578161230b8882612398565b8452602084019350602083019250506001810190506122f8565b5050509392505050565b60008135905061233e81613344565b92915050565b600082601f83011261235557600080fd5b8135612365848260208601612257565b91505092915050565b600082601f83011261237f57600080fd5b813561238f8482602086016122c3565b91505092915050565b6000813590506123a78161335b565b92915050565b6000602082840312156123bf57600080fd5b60006123cd8482850161232f565b91505092915050565b600080604083850312156123e957600080fd5b60006123f78582860161232f565b92505060206124088582860161232f565b9150509250929050565b60008060006060848603121561242757600080fd5b60006124358682870161232f565b93505060206124468682870161232f565b925050604061245786828701612398565b9150509250925092565b6000806040838503121561247457600080fd5b60006124828582860161232f565b925050602061249385828601612398565b9150509250929050565b600080604083850312156124b057600080fd5b600083013567ffffffffffffffff8111156124ca57600080fd5b6124d685828601612344565b925050602083013567ffffffffffffffff8111156124f357600080fd5b6124ff8582860161236e565b9150509250929050565b60006020828403121561251b57600080fd5b600061252984828501612398565b91505092915050565b600061253e838361254a565b60208301905092915050565b61255381612cee565b82525050565b61256281612cee565b82525050565b600061257382612c1f565b61257d8185612c42565b935061258883612c0f565b8060005b838110156125b95781516125a08882612532565b97506125ab83612c35565b92505060018101905061258c565b5085935050505092915050565b6125cf81612d00565b82525050565b60006125e082612c2a565b6125ea8185612c53565b93506125fa818560208601612d43565b61260381612eaf565b840191505092915050565b600061261b602383612c53565b915061262682612ec0565b604082019050919050565b600061263e602283612c53565b915061264982612f0f565b604082019050919050565b6000612661601483612c53565b915061266c82612f5e565b602082019050919050565b6000612684602683612c53565b915061268f82612f87565b604082019050919050565b60006126a7602283612c53565b91506126b282612fd6565b604082019050919050565b60006126ca601d83612c53565b91506126d582613025565b602082019050919050565b60006126ed602683612c53565b91506126f88261304e565b604082019050919050565b6000612710600b83612c53565b915061271b8261309d565b602082019050919050565b6000612733600983612c53565b915061273e826130c6565b602082019050919050565b6000612756600a83612c53565b9150612761826130ef565b602082019050919050565b6000612779602583612c53565b915061278482613118565b604082019050919050565b600061279c602083612c53565b91506127a782613167565b602082019050919050565b60006127bf602183612c53565b91506127ca82613190565b604082019050919050565b60006127e2602583612c53565b91506127ed826131df565b604082019050919050565b6000612805602483612c53565b91506128108261322e565b604082019050919050565b6000612828602483612c53565b91506128338261327d565b604082019050919050565b600061284b602583612c53565b9150612856826132cc565b604082019050919050565b600061286e601f83612c53565b91506128798261331b565b602082019050919050565b61288d81612d2c565b82525050565b61289c81612d36565b82525050565b60006020820190506128b76000830184612559565b92915050565b600060208201905081810360008301526128d78184612568565b905092915050565b60006020820190506128f460008301846125c6565b92915050565b6000602082019050818103600083015261291481846125d5565b905092915050565b600060208201905081810360008301526129358161260e565b9050919050565b6000602082019050818103600083015261295581612631565b9050919050565b6000602082019050818103600083015261297581612654565b9050919050565b6000602082019050818103600083015261299581612677565b9050919050565b600060208201905081810360008301526129b58161269a565b9050919050565b600060208201905081810360008301526129d5816126bd565b9050919050565b600060208201905081810360008301526129f5816126e0565b9050919050565b60006020820190508181036000830152612a1581612703565b9050919050565b60006020820190508181036000830152612a3581612726565b9050919050565b60006020820190508181036000830152612a5581612749565b9050919050565b60006020820190508181036000830152612a758161276c565b9050919050565b60006020820190508181036000830152612a958161278f565b9050919050565b60006020820190508181036000830152612ab5816127b2565b9050919050565b60006020820190508181036000830152612ad5816127d5565b9050919050565b60006020820190508181036000830152612af5816127f8565b9050919050565b60006020820190508181036000830152612b158161281b565b9050919050565b60006020820190508181036000830152612b358161283e565b9050919050565b60006020820190508181036000830152612b5581612861565b9050919050565b6000602082019050612b716000830184612884565b92915050565b6000602082019050612b8c6000830184612893565b92915050565b6000612b9c612bad565b9050612ba88282612da8565b919050565b6000604051905090565b600067ffffffffffffffff821115612bd257612bd1612e80565b5b602082029050602081019050919050565b600067ffffffffffffffff821115612bfe57612bfd612e80565b5b602082029050602081019050919050565b6000819050602082019050919050565b600081519050919050565b600081519050919050565b6000602082019050919050565b600082825260208201905092915050565b600082825260208201905092915050565b6000612c6f82612d2c565b9150612c7a83612d2c565b9250827fffffffffffffffffffffffffffffffffffffffffffffffffffffffffffffffff03821115612caf57612cae612e22565b5b828201905092915050565b6000612cc582612d2c565b9150612cd083612d2c565b925082821015612ce357612ce2612e22565b5b828203905092915050565b6000612cf982612d0c565b9050919050565b60008115159050919050565b600073ffffffffffffffffffffffffffffffffffffffff82169050919050565b6000819050919050565b600060ff82169050919050565b60005b83811015612d61578082015181840152602081019050612d46565b83811115612d70576000848401525b50505050565b60006002820490506001821680612d8e57607f821691505b60208210811415612da257612da1612e51565b5b50919050565b612db182612eaf565b810181811067ffffffffffffffff82111715612dd057612dcf612e80565b5b80604052505050565b6000612de482612d2c565b91507fffffffffffffffffffffffffffffffffffffffffffffffffffffffffffffffff821415612e1757612e16612e22565b5b600182019050919050565b7f4e487b7100000000000000000000000000000000000000000000000000000000600052601160045260246000fd5b7f4e487b7100000000000000000000000000000000000000000000000000000000600052602260045260246000fd5b7f4e487b7100000000000000000000000000000000000000000000000000000000600052604160045260246000fd5b6000601f19601f8301169050919050565b7f45524332303a207472616e7366657220746f20746865207a65726f206164647260008201527f6573730000000000000000000000000000000000000000000000000000000000602082015250565b7f45524332303a206275726e20616d6f756e7420657863656564732062616c616e60008201527f6365000000000000000000000000000000000000000000000000000000000000602082015250565b7f6e6f7420656e6f75676820617267756d656e7473000000000000000000000000600082015250565b7f4f776e61626c653a206e6577206f776e657220697320746865207a65726f206160008201527f6464726573730000000000000000000000000000000000000000000000000000602082015250565b7f45524332303a20617070726f766520746f20746865207a65726f20616464726560008201527f7373000000000000000000000000000000000000000000000000000000000000602082015250565b7f45524332303a20696e73756666696369656e7420616c6c6f77616e6365000000600082015250565b7f45524332303a207472616e7366657220616d6f756e742065786365656473206260008201527f616c616e63650000000000000000000000000000000000000000000000000000602082015250565b7f4f6e6c792d6d696e746572000000000000000000000000000000000000000000600082015250565b7f4973206d696e7465720000000000000000000000000000000000000000000000600082015250565b7f4e6f74206d696e74657200000000000000000000000000000000000000000000600082015250565b7f45524332303a206d696e7420616d6f756e742065786365656473206d6178207360008201527f7570706c79000000000000000000000000000000000000000000000000000000602082015250565b7f4f776e61626c653a2063616c6c6572206973206e6f7420746865206f776e6572600082015250565b7f45524332303a206275726e2066726f6d20746865207a65726f2061646472657360008201527f7300000000000000000000000000000000000000000000000000000000000000602082015250565b7f45524332303a207472616e736665722066726f6d20746865207a65726f20616460008201527f6472657373000000000000000000000000000000000000000000000000000000602082015250565b7f4174206c65617374206f6e65206d696e74657220686173206e6f74206163636560008201527f7074656400000000000000000000000000000000000000000000000000000000602082015250565b7f45524332303a20617070726f76652066726f6d20746865207a65726f2061646460008201527f7265737300000000000000000000000000000000000000000000000000000000602082015250565b7f45524332303a2064656372656173656420616c6c6f77616e63652062656c6f7760008201527f207a65726f000000000000000000000000000000000000000000000000000000602082015250565b7f45524332303a206d696e7420746f20746865207a65726f206164647265737300600082015250565b61334d81612cee565b811461335857600080fd5b50565b61336481612d2c565b811461336f57600080fd5b5056fea26469706673582212201ca44fb1876fd4a887fac3f5bb5cf43d6204f4a089d42090d3627ba50ca272d164736f6c63430008040033",
  "linkReferences": {},
  "deployedLinkReferences": {}
}