{
  "_format": "hh-sol-artifact-1",
  "contractName": "IVIRSE",
  "sourceName": "src/solidity/contracts/IVIRSE.sol",
  "abi": [
    {
      "inputs": [],
      "stateMutability": "nonpayable",
      "type": "constructor"
    },
    {
      "anonymous": false,
      "inputs": [
        {
          "indexed": true,
          "internalType": "address",
          "name": "owner",
          "type": "address"
        },
        {
          "indexed": true,
          "internalType": "address",
          "name": "spender",
          "type": "address"
        },
        {
          "indexed": false,
          "internalType": "uint256",
          "name": "value",
          "type": "uint256"
        }
      ],
      "name": "Approval",
      "type": "event"
    },
    {
      "anonymous": false,
      "inputs": [
        {
          "indexed": true,
          "internalType": "address",
          "name": "_minterAddr",
          "type": "address"
        }
      ],
      "name": "MinterAdded",
      "type": "event"
    },
    {
      "anonymous": false,
      "inputs": [
        {
          "indexed": true,
          "internalType": "address",
          "name": "_minterAddr",
          "type": "address"
        }
      ],
      "name": "MinterRemoved",
      "type": "event"
    },
    {
      "anonymous": false,
      "inputs": [
        {
          "indexed": true,
          "internalType": "address",
          "name": "previousOwner",
          "type": "address"
        },
        {
          "indexed": true,
          "internalType": "address",
          "name": "newOwner",
          "type": "address"
        }
      ],
      "name": "OwnershipTransferred",
      "type": "event"
    },
    {
      "anonymous": false,
      "inputs": [
        {
          "indexed": true,
          "internalType": "address",
          "name": "from",
          "type": "address"
        },
        {
          "indexed": true,
          "internalType": "address",
          "name": "to",
          "type": "address"
        },
        {
          "indexed": false,
          "internalType": "uint256",
          "name": "value",
          "type": "uint256"
        }
      ],
      "name": "Transfer",
      "type": "event"
    },
    {
      "inputs": [
        {
          "internalType": "address",
          "name": "_minterAddr",
          "type": "address"
        }
      ],
      "name": "addMinter",
      "outputs": [],
      "stateMutability": "nonpayable",
      "type": "function"
    },
    {
      "inputs": [
        {
          "internalType": "address",
          "name": "owner",
          "type": "address"
        },
        {
          "internalType": "address",
          "name": "spender",
          "type": "address"
        }
      ],
      "name": "allowance",
      "outputs": [
        {
          "internalType": "uint256",
          "name": "",
          "type": "uint256"
        }
      ],
      "stateMutability": "view",
      "type": "function"
    },
    {
      "inputs": [
        {
          "internalType": "address",
          "name": "spender",
          "type": "address"
        },
        {
          "internalType": "uint256",
          "name": "amount",
          "type": "uint256"
        }
      ],
      "name": "approve",
      "outputs": [
        {
          "internalType": "bool",
          "name": "",
          "type": "bool"
        }
      ],
      "stateMutability": "nonpayable",
      "type": "function"
    },
    {
      "inputs": [
        {
          "internalType": "address[]",
          "name": "_listAcc",
          "type": "address[]"
        },
        {
          "internalType": "uint256[]",
          "name": "_listAmount",
          "type": "uint256[]"
        }
      ],
      "name": "approveList",
      "outputs": [],
      "stateMutability": "nonpayable",
      "type": "function"
    },
    {
      "inputs": [
        {
          "internalType": "address",
          "name": "account",
          "type": "address"
        }
      ],
      "name": "balanceOf",
      "outputs": [
        {
          "internalType": "uint256",
          "name": "",
          "type": "uint256"
        }
      ],
      "stateMutability": "view",
      "type": "function"
    },
    {
      "inputs": [
        {
          "internalType": "uint256",
          "name": "amount",
          "type": "uint256"
        }
      ],
      "name": "burn",
      "outputs": [],
      "stateMutability": "nonpayable",
      "type": "function"
    },
    {
      "inputs": [
        {
          "internalType": "address",
          "name": "ng_check",
          "type": "address"
        }
      ],
      "name": "checkTimeLock",
      "outputs": [
        {
          "internalType": "uint256",
          "name": "",
          "type": "uint256"
        }
      ],
      "stateMutability": "view",
      "type": "function"
    },
    {
      "inputs": [],
      "name": "decimals",
      "outputs": [
        {
          "internalType": "uint8",
          "name": "",
          "type": "uint8"
        }
      ],
      "stateMutability": "view",
      "type": "function"
    },
    {
      "inputs": [
        {
          "internalType": "address",
          "name": "spender",
          "type": "address"
        },
        {
          "internalType": "uint256",
          "name": "subtractedValue",
          "type": "uint256"
        }
      ],
      "name": "decreaseAllowance",
      "outputs": [
        {
          "internalType": "bool",
          "name": "",
          "type": "bool"
        }
      ],
      "stateMutability": "nonpayable",
      "type": "function"
    },
    {
      "inputs": [],
      "name": "getMinters",
      "outputs": [
        {
          "internalType": "address[]",
          "name": "",
          "type": "address[]"
        }
      ],
      "stateMutability": "view",
      "type": "function"
    },
    {
      "inputs": [
        {
          "internalType": "address",
          "name": "spender",
          "type": "address"
        },
        {
          "internalType": "uint256",
          "name": "addedValue",
          "type": "uint256"
        }
      ],
      "name": "increaseAllowance",
      "outputs": [
        {
          "internalType": "bool",
          "name": "",
          "type": "bool"
        }
      ],
      "stateMutability": "nonpayable",
      "type": "function"
    },
    {
      "inputs": [],
      "name": "maxSupply",
      "outputs": [
        {
          "internalType": "uint256",
          "name": "",
          "type": "uint256"
        }
      ],
      "stateMutability": "view",
      "type": "function"
    },
    {
      "inputs": [
        {
          "internalType": "address",
          "name": "account",
          "type": "address"
        },
        {
          "internalType": "uint256",
          "name": "amount",
          "type": "uint256"
        }
      ],
      "name": "mint",
      "outputs": [],
      "stateMutability": "nonpayable",
      "type": "function"
    },
    {
      "inputs": [
        {
          "internalType": "address",
          "name": "account",
          "type": "address"
        },
        {
          "internalType": "uint256",
          "name": "amount",
          "type": "uint256"
        }
      ],
      "name": "mintConsensus",
      "outputs": [],
      "stateMutability": "nonpayable",
      "type": "function"
    },
    {
      "inputs": [
        {
          "internalType": "address",
          "name": "",
          "type": "address"
        }
      ],
      "name": "minter",
      "outputs": [
        {
          "internalType": "bool",
          "name": "",
          "type": "bool"
        }
      ],
      "stateMutability": "view",
      "type": "function"
    },
    {
      "inputs": [],
      "name": "minterConsensus",
      "outputs": [],
      "stateMutability": "nonpayable",
      "type": "function"
    },
    {
      "inputs": [
        {
          "internalType": "address",
          "name": "",
          "type": "address"
        }
      ],
      "name": "minterConsent",
      "outputs": [
        {
          "internalType": "bool",
          "name": "",
          "type": "bool"
        }
      ],
      "stateMutability": "view",
      "type": "function"
    },
    {
      "inputs": [],
      "name": "minterReject",
      "outputs": [],
      "stateMutability": "nonpayable",
      "type": "function"
    },
    {
      "inputs": [],
      "name": "name",
      "outputs": [
        {
          "internalType": "string",
          "name": "",
          "type": "string"
        }
      ],
      "stateMutability": "view",
      "type": "function"
    },
    {
      "inputs": [],
      "name": "owner",
      "outputs": [
        {
          "internalType": "address",
          "name": "",
          "type": "address"
        }
      ],
      "stateMutability": "view",
      "type": "function"
    },
    {
      "inputs": [
        {
          "internalType": "address",
          "name": "ng_nhan",
          "type": "address"
        },
        {
          "internalType": "uint256",
          "name": "amounts",
          "type": "uint256"
        },
        {
          "internalType": "uint256",
          "name": "lockTimes",
          "type": "uint256"
        }
      ],
      "name": "payIn",
      "outputs": [],
      "stateMutability": "nonpayable",
      "type": "function"
    },
    {
      "inputs": [],
      "name": "payOut",
      "outputs": [],
      "stateMutability": "nonpayable",
      "type": "function"
    },
    {
      "inputs": [
        {
          "internalType": "address",
          "name": "_minterAddr",
          "type": "address"
        }
      ],
      "name": "removeMinter",
      "outputs": [],
      "stateMutability": "nonpayable",
      "type": "function"
    },
    {
      "inputs": [],
      "name": "renounceOwnership",
      "outputs": [],
      "stateMutability": "nonpayable",
      "type": "function"
    },
    {
      "inputs": [],
      "name": "symbol",
      "outputs": [
        {
          "internalType": "string",
          "name": "",
          "type": "string"
        }
      ],
      "stateMutability": "view",
      "type": "function"
    },
    {
      "inputs": [],
      "name": "totalSupply",
      "outputs": [
        {
          "internalType": "uint256",
          "name": "",
          "type": "uint256"
        }
      ],
      "stateMutability": "view",
      "type": "function"
    },
    {
      "inputs": [
        {
          "internalType": "address",
          "name": "to",
          "type": "address"
        },
        {
          "internalType": "uint256",
          "name": "amount",
          "type": "uint256"
        }
      ],
      "name": "transfer",
      "outputs": [
        {
          "internalType": "bool",
          "name": "",
          "type": "bool"
        }
      ],
      "stateMutability": "nonpayable",
      "type": "function"
    },
    {
      "inputs": [
        {
          "internalType": "address",
          "name": "from",
          "type": "address"
        },
        {
          "internalType": "address",
          "name": "to",
          "type": "address"
        },
        {
          "internalType": "uint256",
          "name": "amount",
          "type": "uint256"
        }
      ],
      "name": "transferFrom",
      "outputs": [
        {
          "internalType": "bool",
          "name": "",
          "type": "bool"
        }
      ],
      "stateMutability": "nonpayable",
      "type": "function"
    },
    {
      "inputs": [
        {
          "internalType": "address[]",
          "name": "_listAcc",
          "type": "address[]"
        },
        {
          "internalType": "uint256[]",
          "name": "_listAmount",
          "type": "uint256[]"
        }
      ],
      "name": "transferList",
      "outputs": [],
      "stateMutability": "nonpayable",
      "type": "function"
    },
    {
      "inputs": [
        {
          "internalType": "address",
          "name": "newOwner",
          "type": "address"
        }
      ],
      "name": "transferOwnership",
      "outputs": [],
      "stateMutability": "nonpayable",
      "type": "function"
    }
  ],
  "bytecode": "0x60806040523480156200001157600080fd5b506040518060400160405280600a81526020017f495649525345436f696e000000000000000000000000000000000000000000008152506040518060400160405280600381526020017f494849000000000000000000000000000000000000000000000000000000000081525081600390805190602001906200009692919062000495565b508060049080519060200190620000af92919062000495565b505050620000d2620000c66200012560201b60201c565b6200012d60201b60201c565b60006012600a620000e4919062000643565b9050806334fb5e38620000f8919062000780565b6006819055506200011e620001126200012560201b60201c565b620001f360201b60201c565b50620008de565b600033905090565b6000600560009054906101000a900473ffffffffffffffffffffffffffffffffffffffff16905081600560006101000a81548173ffffffffffffffffffffffffffffffffffffffff021916908373ffffffffffffffffffffffffffffffffffffffff1602179055508173ffffffffffffffffffffffffffffffffffffffff168173ffffffffffffffffffffffffffffffffffffffff167f8be0079c531659141344cd1fd0a4f28419497f9722a3daafe3b4186f6b6457e060405160405180910390a35050565b620002036200012560201b60201c565b73ffffffffffffffffffffffffffffffffffffffff16620002296200046b60201b60201c565b73ffffffffffffffffffffffffffffffffffffffff161462000282576040517f08c379a00000000000000000000000000000000000000000000000000000000081526004016200027990620005b5565b60405180910390fd5b600860008273ffffffffffffffffffffffffffffffffffffffff1673ffffffffffffffffffffffffffffffffffffffff16815260200190815260200160002060009054906101000a900460ff161562000312576040517f08c379a0000000000000000000000000000000000000000000000000000000008152600401620003099062000593565b60405180910390fd5b600a819080600181540180825580915050600190039060005260206000200160009091909190916101000a81548173ffffffffffffffffffffffffffffffffffffffff021916908373ffffffffffffffffffffffffffffffffffffffff1602179055506001600860008373ffffffffffffffffffffffffffffffffffffffff1673ffffffffffffffffffffffffffffffffffffffff16815260200190815260200160002060006101000a81548160ff0219169083151502179055506000600960008373ffffffffffffffffffffffffffffffffffffffff1673ffffffffffffffffffffffffffffffffffffffff16815260200190815260200160002060006101000a81548160ff0219169083151502179055508073ffffffffffffffffffffffffffffffffffffffff167f6ae172837ea30b801fbfcdd4108aa1d5bf8ff775444fd70256b44e6bf3dfc3f660405160405180910390a250565b6000600560009054906101000a900473ffffffffffffffffffffffffffffffffffffffff16905090565b828054620004a390620007eb565b90600052602060002090601f016020900481019282620004c7576000855562000513565b82601f10620004e257805160ff191683800117855562000513565b8280016001018555821562000513579182015b8281111562000512578251825591602001919060010190620004f5565b5b50905062000522919062000526565b5090565b5b808211156200054157600081600090555060010162000527565b5090565b600062000554600983620005d7565b915062000561826200088c565b602082019050919050565b60006200057b602083620005d7565b91506200058882620008b5565b602082019050919050565b60006020820190508181036000830152620005ae8162000545565b9050919050565b60006020820190508181036000830152620005d0816200056c565b9050919050565b600082825260208201905092915050565b6000808291508390505b60018511156200063a5780860481111562000612576200061162000821565b5b6001851615620006225780820291505b808102905062000632856200087f565b9450620005f2565b94509492505050565b60006200065082620007e1565b91506200065d83620007e1565b92506200068c7fffffffffffffffffffffffffffffffffffffffffffffffffffffffffffffffff848462000694565b905092915050565b600082620006a6576001905062000779565b81620006b6576000905062000779565b8160018114620006cf5760028114620006da5762000710565b600191505062000779565b60ff841115620006ef57620006ee62000821565b5b8360020a91508482111562000709576200070862000821565b5b5062000779565b5060208310610133831016604e8410600b84101617156200074a5782820a90508381111562000744576200074362000821565b5b62000779565b620007598484846001620005e8565b9250905081840481111562000773576200077262000821565b5b81810290505b9392505050565b60006200078d82620007e1565b91506200079a83620007e1565b9250817fffffffffffffffffffffffffffffffffffffffffffffffffffffffffffffffff0483118215151615620007d657620007d562000821565b5b828202905092915050565b6000819050919050565b600060028204905060018216806200080457607f821691505b602082108114156200081b576200081a62000850565b5b50919050565b7f4e487b7100000000000000000000000000000000000000000000000000000000600052601160045260246000fd5b7f4e487b7100000000000000000000000000000000000000000000000000000000600052602260045260246000fd5b60008160011c9050919050565b7f4973206d696e7465720000000000000000000000000000000000000000000000600082015250565b7f4f776e61626c653a2063616c6c6572206973206e6f7420746865206f776e6572600082015250565b613a5080620008ee6000396000f3fe608060405234801561001057600080fd5b50600436106101da5760003560e01c8063806ca62211610104578063a5c8ebdd116100a2578063dd62ed3e11610071578063dd62ed3e14610555578063f1f03e3c14610585578063f2fde38b1461058f578063f50435ee146105ab576101da565b8063a5c8ebdd146104cd578063a9059cbb146104fd578063c20524031461052d578063d5abeb0114610537576101da565b80638da5cb5b116100de5780638da5cb5b1461044557806395d89b4114610463578063983b2d5614610481578063a457c2d71461049d576101da565b8063806ca622146103dd578063859bc2f3146103f95780638cb91fe614610415576101da565b8063395093511161017c57806342966c681161014b57806342966c68146103695780636b32810b1461038557806370a08231146103a3578063715018a6146103d3576101da565b806339509351146102d15780633cd81842146103015780633dd08c381461031d57806340c10f191461034d576101da565b806318160ddd116101b857806318160ddd1461024957806323b872dd146102675780633092afd514610297578063313ce567146102b3576101da565b806302eb07a5146101df57806306fdde03146101fb578063095ea7b314610219575b600080fd5b6101f960048036038101906101f491906129b2565b6105b5565b005b610203610712565b6040516102109190612ec7565b60405180910390f35b610233600480360381019061022e9190612976565b6107a4565b6040516102409190612eac565b60405180910390f35b6102516107c7565b60405161025e9190613189565b60405180910390f35b610281600480360381019061027c9190612927565b6107d1565b60405161028e9190612eac565b60405180910390f35b6102b160048036038101906102ac91906128c2565b610800565b005b6102bb610cbf565b6040516102c891906131a4565b60405180910390f35b6102eb60048036038101906102e69190612976565b610cc8565b6040516102f89190612eac565b60405180910390f35b61031b60048036038101906103169190612a01565b610d72565b005b610337600480360381019061033291906128c2565b610e65565b6040516103449190612eac565b60405180910390f35b61036760048036038101906103629190612976565b610e85565b005b610383600480360381019061037e9190612a6d565b610f6f565b005b61038d610f83565b60405161039a9190612e8a565b60405180910390f35b6103bd60048036038101906103b891906128c2565b611011565b6040516103ca9190613189565b60405180910390f35b6103db611059565b005b6103f760048036038101906103f29190612976565b6110e1565b005b610413600480360381019061040e9190612a01565b6113dd565b005b61042f600480360381019061042a91906128c2565b6114d0565b60405161043c9190613189565b60405180910390f35b61044d611527565b60405161045a9190612e6f565b60405180910390f35b61046b611551565b6040516104789190612ec7565b60405180910390f35b61049b600480360381019061049691906128c2565b6115e3565b005b6104b760048036038101906104b29190612976565b611845565b6040516104c49190612eac565b60405180910390f35b6104e760048036038101906104e291906128c2565b61192f565b6040516104f49190612eac565b60405180910390f35b61051760048036038101906105129190612976565b61194f565b6040516105249190612eac565b60405180910390f35b610535611972565b005b61053f611b22565b60405161054c9190613189565b60405180910390f35b61056f600480360381019061056a91906128eb565b611b2c565b60405161057c9190613189565b60405180910390f35b61058d611bb3565b005b6105a960048036038101906105a491906128c2565b611ca0565b005b6105b3611d98565b005b6105bd611e85565b73ffffffffffffffffffffffffffffffffffffffff166105db611527565b73ffffffffffffffffffffffffffffffffffffffff1614610631576040517f08c379a000000000000000000000000000000000000000000000000000000000815260040161062890613049565b60405180910390fd5b60008211610674576040517f08c379a000000000000000000000000000000000000000000000000000000000815260040161066b90613069565b60405180910390fd5b81600b60008573ffffffffffffffffffffffffffffffffffffffff1673ffffffffffffffffffffffffffffffffffffffff1681526020019081526020016000206000018190555080426106c79190613291565b600b60008573ffffffffffffffffffffffffffffffffffffffff1673ffffffffffffffffffffffffffffffffffffffff16815260200190815260200160002060010181905550505050565b606060038054610721906133a3565b80601f016020809104026020016040519081016040528092919081815260200182805461074d906133a3565b801561079a5780601f1061076f5761010080835404028352916020019161079a565b820191906000526020600020905b81548152906001019060200180831161077d57829003601f168201915b5050505050905090565b6000806107af611e85565b90506107bc818585611e8d565b600191505092915050565b6000600254905090565b6000806107dc611e85565b90506107e9858285612058565b6107f48585856120e4565b60019150509392505050565b610808611e85565b73ffffffffffffffffffffffffffffffffffffffff16610826611527565b73ffffffffffffffffffffffffffffffffffffffff161461087c576040517f08c379a000000000000000000000000000000000000000000000000000000000815260040161087390613049565b60405180910390fd5b600860008273ffffffffffffffffffffffffffffffffffffffff1673ffffffffffffffffffffffffffffffffffffffff16815260200190815260200160002060009054906101000a900460ff16610908576040517f08c379a00000000000000000000000000000000000000000000000000000000081526004016108ff90613009565b60405180910390fd5b6000600860008373ffffffffffffffffffffffffffffffffffffffff1673ffffffffffffffffffffffffffffffffffffffff16815260200190815260200160002060006101000a81548160ff0219169083151502179055506001600960008373ffffffffffffffffffffffffffffffffffffffff1673ffffffffffffffffffffffffffffffffffffffff16815260200190815260200160002060006101000a81548160ff0219169083151502179055508073ffffffffffffffffffffffffffffffffffffffff167fe94479a9f7e1952cc78f2d6baab678adc1b772d936c6583def489e524cb6669260405160405180910390a26000805b600a80549050821015610cba57600a8281548110610a46577f4e487b7100000000000000000000000000000000000000000000000000000000600052603260045260246000fd5b9060005260206000200160009054906101000a900473ffffffffffffffffffffffffffffffffffffffff169050600860008273ffffffffffffffffffffffffffffffffffffffff1673ffffffffffffffffffffffffffffffffffffffff16815260200190815260200160002060009054906101000a900460ff16610ca657600a6001600a80549050610ad891906132e7565b81548110610b0f577f4e487b7100000000000000000000000000000000000000000000000000000000600052603260045260246000fd5b9060005260206000200160009054906101000a900473ffffffffffffffffffffffffffffffffffffffff16600a8381548110610b74577f4e487b7100000000000000000000000000000000000000000000000000000000600052603260045260246000fd5b9060005260206000200160006101000a81548173ffffffffffffffffffffffffffffffffffffffff021916908373ffffffffffffffffffffffffffffffffffffffff160217905550600a6001600a80549050610bd091906132e7565b81548110610c07577f4e487b7100000000000000000000000000000000000000000000000000000000600052603260045260246000fd5b9060005260206000200160006101000a81549073ffffffffffffffffffffffffffffffffffffffff0219169055600a805480610c6c577f4e487b7100000000000000000000000000000000000000000000000000000000600052603160045260246000fd5b6001900381819060005260206000200160006101000a81549073ffffffffffffffffffffffffffffffffffffffff02191690559055610cb5565b8180610cb190613406565b9250505b6109ff565b505050565b60006012905090565b600080610cd3611e85565b9050610d67818585600160008673ffffffffffffffffffffffffffffffffffffffff1673ffffffffffffffffffffffffffffffffffffffff16815260200190815260200160002060008973ffffffffffffffffffffffffffffffffffffffff1673ffffffffffffffffffffffffffffffffffffffff16815260200190815260200160002054610d629190613291565b611e8d565b600191505092915050565b8051825114610db6576040517f08c379a0000000000000000000000000000000000000000000000000000000008152600401610dad90612f29565b60405180910390fd5b60005b8251811015610e6057610e4c838281518110610dfe577f4e487b7100000000000000000000000000000000000000000000000000000000600052603260045260246000fd5b6020026020010151838381518110610e3f577f4e487b7100000000000000000000000000000000000000000000000000000000600052603260045260246000fd5b60200260200101516107a4565b508080610e5890613406565b915050610db9565b505050565b60086020528060005260406000206000915054906101000a900460ff1681565b610e8d611e85565b73ffffffffffffffffffffffffffffffffffffffff16610eab611527565b73ffffffffffffffffffffffffffffffffffffffff1614610f01576040517f08c379a0000000000000000000000000000000000000000000000000000000008152600401610ef890613049565b60405180910390fd5b610f096107c7565b60078190555060065481600754610f209190613291565b1115610f61576040517f08c379a0000000000000000000000000000000000000000000000000000000008152600401610f5890613029565b60405180910390fd5b610f6b8282612365565b5050565b610f80610f7a611e85565b826124c5565b50565b6060600a80548060200260200160405190810160405280929190818152602001828054801561100757602002820191906000526020600020905b8160009054906101000a900473ffffffffffffffffffffffffffffffffffffffff1673ffffffffffffffffffffffffffffffffffffffff1681526020019060010190808311610fbd575b5050505050905090565b60008060008373ffffffffffffffffffffffffffffffffffffffff1673ffffffffffffffffffffffffffffffffffffffff168152602001908152602001600020549050919050565b611061611e85565b73ffffffffffffffffffffffffffffffffffffffff1661107f611527565b73ffffffffffffffffffffffffffffffffffffffff16146110d5576040517f08c379a00000000000000000000000000000000000000000000000000000000081526004016110cc90613049565b60405180910390fd5b6110df600061269c565b565b600860003373ffffffffffffffffffffffffffffffffffffffff1673ffffffffffffffffffffffffffffffffffffffff16815260200190815260200160002060009054906101000a900460ff1661116d576040517f08c379a000000000000000000000000000000000000000000000000000000000815260040161116490612fc9565b60405180910390fd5b6111756107c7565b6007819055506006548160075461118c9190613291565b11156111cd576040517f08c379a00000000000000000000000000000000000000000000000000000000081526004016111c490613029565b60405180910390fd5b6000806000600a805490509050600092505b808310156112ed57600a8381548110611221577f4e487b7100000000000000000000000000000000000000000000000000000000600052603260045260246000fd5b9060005260206000200160009054906101000a900473ffffffffffffffffffffffffffffffffffffffff169150600960008373ffffffffffffffffffffffffffffffffffffffff1673ffffffffffffffffffffffffffffffffffffffff16815260200190815260200160002060009054906101000a900460ff166112da576040517f08c379a00000000000000000000000000000000000000000000000000000000081526004016112d1906130c9565b60405180910390fd5b82806112e590613406565b9350506111df565b6112f78585612365565b600092505b808310156113d657600a838154811061133e577f4e487b7100000000000000000000000000000000000000000000000000000000600052603260045260246000fd5b9060005260206000200160009054906101000a900473ffffffffffffffffffffffffffffffffffffffff1691506000600960008473ffffffffffffffffffffffffffffffffffffffff1673ffffffffffffffffffffffffffffffffffffffff16815260200190815260200160002060006101000a81548160ff02191690831515021790555082806113ce90613406565b9350506112fc565b5050505050565b8051825114611421576040517f08c379a000000000000000000000000000000000000000000000000000000000815260040161141890612f29565b60405180910390fd5b60005b82518110156114cb576114b7838281518110611469577f4e487b7100000000000000000000000000000000000000000000000000000000600052603260045260246000fd5b60200260200101518383815181106114aa577f4e487b7100000000000000000000000000000000000000000000000000000000600052603260045260246000fd5b602002602001015161194f565b5080806114c390613406565b915050611424565b505050565b6000600b60008373ffffffffffffffffffffffffffffffffffffffff1673ffffffffffffffffffffffffffffffffffffffff168152602001908152602001600020600101544261152091906132e7565b9050919050565b6000600560009054906101000a900473ffffffffffffffffffffffffffffffffffffffff16905090565b606060048054611560906133a3565b80601f016020809104026020016040519081016040528092919081815260200182805461158c906133a3565b80156115d95780601f106115ae576101008083540402835291602001916115d9565b820191906000526020600020905b8154815290600101906020018083116115bc57829003601f168201915b5050505050905090565b6115eb611e85565b73ffffffffffffffffffffffffffffffffffffffff16611609611527565b73ffffffffffffffffffffffffffffffffffffffff161461165f576040517f08c379a000000000000000000000000000000000000000000000000000000000815260040161165690613049565b60405180910390fd5b600860008273ffffffffffffffffffffffffffffffffffffffff1673ffffffffffffffffffffffffffffffffffffffff16815260200190815260200160002060009054906101000a900460ff16156116ec576040517f08c379a00000000000000000000000000000000000000000000000000000000081526004016116e390612fe9565b60405180910390fd5b600a819080600181540180825580915050600190039060005260206000200160009091909190916101000a81548173ffffffffffffffffffffffffffffffffffffffff021916908373ffffffffffffffffffffffffffffffffffffffff1602179055506001600860008373ffffffffffffffffffffffffffffffffffffffff1673ffffffffffffffffffffffffffffffffffffffff16815260200190815260200160002060006101000a81548160ff0219169083151502179055506000600960008373ffffffffffffffffffffffffffffffffffffffff1673ffffffffffffffffffffffffffffffffffffffff16815260200190815260200160002060006101000a81548160ff0219169083151502179055508073ffffffffffffffffffffffffffffffffffffffff167f6ae172837ea30b801fbfcdd4108aa1d5bf8ff775444fd70256b44e6bf3dfc3f660405160405180910390a250565b600080611850611e85565b90506000600160008373ffffffffffffffffffffffffffffffffffffffff1673ffffffffffffffffffffffffffffffffffffffff16815260200190815260200160002060008673ffffffffffffffffffffffffffffffffffffffff1673ffffffffffffffffffffffffffffffffffffffff16815260200190815260200160002054905083811015611916576040517f08c379a000000000000000000000000000000000000000000000000000000000815260040161190d90613149565b60405180910390fd5b6119238286868403611e8d565b60019250505092915050565b60096020528060005260406000206000915054906101000a900460ff1681565b60008061195a611e85565b90506119678185856120e4565b600191505092915050565b6000600b60003373ffffffffffffffffffffffffffffffffffffffff1673ffffffffffffffffffffffffffffffffffffffff1681526020019081526020016000206000015414156119f8576040517f08c379a00000000000000000000000000000000000000000000000000000000081526004016119ef90613129565b60405180910390fd5b6000611a03336114d0565b1115611a44576040517f08c379a0000000000000000000000000000000000000000000000000000000008152600401611a3b90613109565b60405180910390fd5b611a9033600b60003373ffffffffffffffffffffffffffffffffffffffff1673ffffffffffffffffffffffffffffffffffffffff16815260200190815260200160002060000154612365565b6000600b60003373ffffffffffffffffffffffffffffffffffffffff1673ffffffffffffffffffffffffffffffffffffffff168152602001908152602001600020600001819055506000600b60003373ffffffffffffffffffffffffffffffffffffffff1673ffffffffffffffffffffffffffffffffffffffff16815260200190815260200160002060010181905550565b6000600654905090565b6000600160008473ffffffffffffffffffffffffffffffffffffffff1673ffffffffffffffffffffffffffffffffffffffff16815260200190815260200160002060008373ffffffffffffffffffffffffffffffffffffffff1673ffffffffffffffffffffffffffffffffffffffff16815260200190815260200160002054905092915050565b600860003373ffffffffffffffffffffffffffffffffffffffff1673ffffffffffffffffffffffffffffffffffffffff16815260200190815260200160002060009054906101000a900460ff16611c3f576040517f08c379a0000000000000000000000000000000000000000000000000000000008152600401611c3690612fc9565b60405180910390fd5b600160096000611c4d611e85565b73ffffffffffffffffffffffffffffffffffffffff1673ffffffffffffffffffffffffffffffffffffffff16815260200190815260200160002060006101000a81548160ff021916908315150217905550565b611ca8611e85565b73ffffffffffffffffffffffffffffffffffffffff16611cc6611527565b73ffffffffffffffffffffffffffffffffffffffff1614611d1c576040517f08c379a0000000000000000000000000000000000000000000000000000000008152600401611d1390613049565b60405180910390fd5b600073ffffffffffffffffffffffffffffffffffffffff168173ffffffffffffffffffffffffffffffffffffffff161415611d8c576040517f08c379a0000000000000000000000000000000000000000000000000000000008152600401611d8390612f49565b60405180910390fd5b611d958161269c565b50565b600860003373ffffffffffffffffffffffffffffffffffffffff1673ffffffffffffffffffffffffffffffffffffffff16815260200190815260200160002060009054906101000a900460ff16611e24576040517f08c379a0000000000000000000000000000000000000000000000000000000008152600401611e1b90612fc9565b60405180910390fd5b600060096000611e32611e85565b73ffffffffffffffffffffffffffffffffffffffff1673ffffffffffffffffffffffffffffffffffffffff16815260200190815260200160002060006101000a81548160ff021916908315150217905550565b600033905090565b600073ffffffffffffffffffffffffffffffffffffffff168373ffffffffffffffffffffffffffffffffffffffff161415611efd576040517f08c379a0000000000000000000000000000000000000000000000000000000008152600401611ef4906130e9565b60405180910390fd5b600073ffffffffffffffffffffffffffffffffffffffff168273ffffffffffffffffffffffffffffffffffffffff161415611f6d576040517f08c379a0000000000000000000000000000000000000000000000000000000008152600401611f6490612f69565b60405180910390fd5b80600160008573ffffffffffffffffffffffffffffffffffffffff1673ffffffffffffffffffffffffffffffffffffffff16815260200190815260200160002060008473ffffffffffffffffffffffffffffffffffffffff1673ffffffffffffffffffffffffffffffffffffffff168152602001908152602001600020819055508173ffffffffffffffffffffffffffffffffffffffff168373ffffffffffffffffffffffffffffffffffffffff167f8c5be1e5ebec7d5bd14f71427d1e84f3dd0314c0f7b2291e5b200ac8c7c3b9258360405161204b9190613189565b60405180910390a3505050565b60006120648484611b2c565b90507fffffffffffffffffffffffffffffffffffffffffffffffffffffffffffffffff81146120de57818110156120d0576040517f08c379a00000000000000000000000000000000000000000000000000000000081526004016120c790612f89565b60405180910390fd5b6120dd8484848403611e8d565b5b50505050565b600073ffffffffffffffffffffffffffffffffffffffff168373ffffffffffffffffffffffffffffffffffffffff161415612154576040517f08c379a000000000000000000000000000000000000000000000000000000000815260040161214b906130a9565b60405180910390fd5b600073ffffffffffffffffffffffffffffffffffffffff168273ffffffffffffffffffffffffffffffffffffffff1614156121c4576040517f08c379a00000000000000000000000000000000000000000000000000000000081526004016121bb90612ee9565b60405180910390fd5b6121cf838383612762565b60008060008573ffffffffffffffffffffffffffffffffffffffff1673ffffffffffffffffffffffffffffffffffffffff16815260200190815260200160002054905081811015612255576040517f08c379a000000000000000000000000000000000000000000000000000000000815260040161224c90612fa9565b60405180910390fd5b8181036000808673ffffffffffffffffffffffffffffffffffffffff1673ffffffffffffffffffffffffffffffffffffffff16815260200190815260200160002081905550816000808573ffffffffffffffffffffffffffffffffffffffff1673ffffffffffffffffffffffffffffffffffffffff16815260200190815260200160002060008282546122e89190613291565b925050819055508273ffffffffffffffffffffffffffffffffffffffff168473ffffffffffffffffffffffffffffffffffffffff167fddf252ad1be2c89b69c2b068fc378daa952ba7f163c4a11628f55a4df523b3ef8460405161234c9190613189565b60405180910390a361235f848484612767565b50505050565b600073ffffffffffffffffffffffffffffffffffffffff168273ffffffffffffffffffffffffffffffffffffffff1614156123d5576040517f08c379a00000000000000000000000000000000000000000000000000000000081526004016123cc90613169565b60405180910390fd5b6123e160008383612762565b80600260008282546123f39190613291565b92505081905550806000808473ffffffffffffffffffffffffffffffffffffffff1673ffffffffffffffffffffffffffffffffffffffff16815260200190815260200160002060008282546124489190613291565b925050819055508173ffffffffffffffffffffffffffffffffffffffff16600073ffffffffffffffffffffffffffffffffffffffff167fddf252ad1be2c89b69c2b068fc378daa952ba7f163c4a11628f55a4df523b3ef836040516124ad9190613189565b60405180910390a36124c160008383612767565b5050565b600073ffffffffffffffffffffffffffffffffffffffff168273ffffffffffffffffffffffffffffffffffffffff161415612535576040517f08c379a000000000000000000000000000000000000000000000000000000000815260040161252c90613089565b60405180910390fd5b61254182600083612762565b60008060008473ffffffffffffffffffffffffffffffffffffffff1673ffffffffffffffffffffffffffffffffffffffff168152602001908152602001600020549050818110156125c7576040517f08c379a00000000000000000000000000000000000000000000000000000000081526004016125be90612f09565b60405180910390fd5b8181036000808573ffffffffffffffffffffffffffffffffffffffff1673ffffffffffffffffffffffffffffffffffffffff16815260200190815260200160002081905550816002600082825461261e91906132e7565b92505081905550600073ffffffffffffffffffffffffffffffffffffffff168373ffffffffffffffffffffffffffffffffffffffff167fddf252ad1be2c89b69c2b068fc378daa952ba7f163c4a11628f55a4df523b3ef846040516126839190613189565b60405180910390a361269783600084612767565b505050565b6000600560009054906101000a900473ffffffffffffffffffffffffffffffffffffffff16905081600560006101000a81548173ffffffffffffffffffffffffffffffffffffffff021916908373ffffffffffffffffffffffffffffffffffffffff1602179055508173ffffffffffffffffffffffffffffffffffffffff168173ffffffffffffffffffffffffffffffffffffffff167f8be0079c531659141344cd1fd0a4f28419497f9722a3daafe3b4186f6b6457e060405160405180910390a35050565b505050565b505050565b600061277f61277a846131e4565b6131bf565b9050808382526020820190508285602086028201111561279e57600080fd5b60005b858110156127ce57816127b48882612844565b8452602084019350602083019250506001810190506127a1565b5050509392505050565b60006127eb6127e684613210565b6131bf565b9050808382526020820190508285602086028201111561280a57600080fd5b60005b8581101561283a578161282088826128ad565b84526020840193506020830192505060018101905061280d565b5050509392505050565b600081359050612853816139ec565b92915050565b600082601f83011261286a57600080fd5b813561287a84826020860161276c565b91505092915050565b600082601f83011261289457600080fd5b81356128a48482602086016127d8565b91505092915050565b6000813590506128bc81613a03565b92915050565b6000602082840312156128d457600080fd5b60006128e284828501612844565b91505092915050565b600080604083850312156128fe57600080fd5b600061290c85828601612844565b925050602061291d85828601612844565b9150509250929050565b60008060006060848603121561293c57600080fd5b600061294a86828701612844565b935050602061295b86828701612844565b925050604061296c868287016128ad565b9150509250925092565b6000806040838503121561298957600080fd5b600061299785828601612844565b92505060206129a8858286016128ad565b9150509250929050565b6000806000606084860312156129c757600080fd5b60006129d586828701612844565b93505060206129e6868287016128ad565b92505060406129f7868287016128ad565b9150509250925092565b60008060408385031215612a1457600080fd5b600083013567ffffffffffffffff811115612a2e57600080fd5b612a3a85828601612859565b925050602083013567ffffffffffffffff811115612a5757600080fd5b612a6385828601612883565b9150509250929050565b600060208284031215612a7f57600080fd5b6000612a8d848285016128ad565b91505092915050565b6000612aa28383612aae565b60208301905092915050565b612ab78161331b565b82525050565b612ac68161331b565b82525050565b6000612ad78261324c565b612ae1818561326f565b9350612aec8361323c565b8060005b83811015612b1d578151612b048882612a96565b9750612b0f83613262565b925050600181019050612af0565b5085935050505092915050565b612b338161332d565b82525050565b6000612b4482613257565b612b4e8185613280565b9350612b5e818560208601613370565b612b67816134dc565b840191505092915050565b6000612b7f602383613280565b9150612b8a826134ed565b604082019050919050565b6000612ba2602283613280565b9150612bad8261353c565b604082019050919050565b6000612bc5601483613280565b9150612bd08261358b565b602082019050919050565b6000612be8602683613280565b9150612bf3826135b4565b604082019050919050565b6000612c0b602283613280565b9150612c1682613603565b604082019050919050565b6000612c2e601d83613280565b9150612c3982613652565b602082019050919050565b6000612c51602683613280565b9150612c5c8261367b565b604082019050919050565b6000612c74600b83613280565b9150612c7f826136ca565b602082019050919050565b6000612c97600983613280565b9150612ca2826136f3565b602082019050919050565b6000612cba600a83613280565b9150612cc58261371c565b602082019050919050565b6000612cdd602583613280565b9150612ce882613745565b604082019050919050565b6000612d00602083613280565b9150612d0b82613794565b602082019050919050565b6000612d23600a83613280565b9150612d2e826137bd565b602082019050919050565b6000612d46602183613280565b9150612d51826137e6565b604082019050919050565b6000612d69602583613280565b9150612d7482613835565b604082019050919050565b6000612d8c602483613280565b9150612d9782613884565b604082019050919050565b6000612daf602483613280565b9150612dba826138d3565b604082019050919050565b6000612dd2600c83613280565b9150612ddd82613922565b602082019050919050565b6000612df5600d83613280565b9150612e008261394b565b602082019050919050565b6000612e18602583613280565b9150612e2382613974565b604082019050919050565b6000612e3b601f83613280565b9150612e46826139c3565b602082019050919050565b612e5a81613359565b82525050565b612e6981613363565b82525050565b6000602082019050612e846000830184612abd565b92915050565b60006020820190508181036000830152612ea48184612acc565b905092915050565b6000602082019050612ec16000830184612b2a565b92915050565b60006020820190508181036000830152612ee18184612b39565b905092915050565b60006020820190508181036000830152612f0281612b72565b9050919050565b60006020820190508181036000830152612f2281612b95565b9050919050565b60006020820190508181036000830152612f4281612bb8565b9050919050565b60006020820190508181036000830152612f6281612bdb565b9050919050565b60006020820190508181036000830152612f8281612bfe565b9050919050565b60006020820190508181036000830152612fa281612c21565b9050919050565b60006020820190508181036000830152612fc281612c44565b9050919050565b60006020820190508181036000830152612fe281612c67565b9050919050565b6000602082019050818103600083015261300281612c8a565b9050919050565b6000602082019050818103600083015261302281612cad565b9050919050565b6000602082019050818103600083015261304281612cd0565b9050919050565b6000602082019050818103600083015261306281612cf3565b9050919050565b6000602082019050818103600083015261308281612d16565b9050919050565b600060208201905081810360008301526130a281612d39565b9050919050565b600060208201905081810360008301526130c281612d5c565b9050919050565b600060208201905081810360008301526130e281612d7f565b9050919050565b6000602082019050818103600083015261310281612da2565b9050919050565b6000602082019050818103600083015261312281612dc5565b9050919050565b6000602082019050818103600083015261314281612de8565b9050919050565b6000602082019050818103600083015261316281612e0b565b9050919050565b6000602082019050818103600083015261318281612e2e565b9050919050565b600060208201905061319e6000830184612e51565b92915050565b60006020820190506131b96000830184612e60565b92915050565b60006131c96131da565b90506131d582826133d5565b919050565b6000604051905090565b600067ffffffffffffffff8211156131ff576131fe6134ad565b5b602082029050602081019050919050565b600067ffffffffffffffff82111561322b5761322a6134ad565b5b602082029050602081019050919050565b6000819050602082019050919050565b600081519050919050565b600081519050919050565b6000602082019050919050565b600082825260208201905092915050565b600082825260208201905092915050565b600061329c82613359565b91506132a783613359565b9250827fffffffffffffffffffffffffffffffffffffffffffffffffffffffffffffffff038211156132dc576132db61344f565b5b828201905092915050565b60006132f282613359565b91506132fd83613359565b9250828210156133105761330f61344f565b5b828203905092915050565b600061332682613339565b9050919050565b60008115159050919050565b600073ffffffffffffffffffffffffffffffffffffffff82169050919050565b6000819050919050565b600060ff82169050919050565b60005b8381101561338e578082015181840152602081019050613373565b8381111561339d576000848401525b50505050565b600060028204905060018216806133bb57607f821691505b602082108114156133cf576133ce61347e565b5b50919050565b6133de826134dc565b810181811067ffffffffffffffff821117156133fd576133fc6134ad565b5b80604052505050565b600061341182613359565b91507fffffffffffffffffffffffffffffffffffffffffffffffffffffffffffffffff8214156134445761344361344f565b5b600182019050919050565b7f4e487b7100000000000000000000000000000000000000000000000000000000600052601160045260246000fd5b7f4e487b7100000000000000000000000000000000000000000000000000000000600052602260045260246000fd5b7f4e487b7100000000000000000000000000000000000000000000000000000000600052604160045260246000fd5b6000601f19601f8301169050919050565b7f45524332303a207472616e7366657220746f20746865207a65726f206164647260008201527f6573730000000000000000000000000000000000000000000000000000000000602082015250565b7f45524332303a206275726e20616d6f756e7420657863656564732062616c616e60008201527f6365000000000000000000000000000000000000000000000000000000000000602082015250565b7f6e6f7420656e6f75676820617267756d656e7473000000000000000000000000600082015250565b7f4f776e61626c653a206e6577206f776e657220697320746865207a65726f206160008201527f6464726573730000000000000000000000000000000000000000000000000000602082015250565b7f45524332303a20617070726f766520746f20746865207a65726f20616464726560008201527f7373000000000000000000000000000000000000000000000000000000000000602082015250565b7f45524332303a20696e73756666696369656e7420616c6c6f77616e6365000000600082015250565b7f45524332303a207472616e7366657220616d6f756e742065786365656473206260008201527f616c616e63650000000000000000000000000000000000000000000000000000602082015250565b7f4f6e6c792d6d696e746572000000000000000000000000000000000000000000600082015250565b7f4973206d696e7465720000000000000000000000000000000000000000000000600082015250565b7f4e6f74206d696e74657200000000000000000000000000000000000000000000600082015250565b7f45524332303a206d696e7420616d6f756e742065786365656473206d6178207360008201527f7570706c79000000000000000000000000000000000000000000000000000000602082015250565b7f4f776e61626c653a2063616c6c6572206973206e6f7420746865206f776e6572600082015250565b7f616d6f756e74203e302000000000000000000000000000000000000000000000600082015250565b7f45524332303a206275726e2066726f6d20746865207a65726f2061646472657360008201527f7300000000000000000000000000000000000000000000000000000000000000602082015250565b7f45524332303a207472616e736665722066726f6d20746865207a65726f20616460008201527f6472657373000000000000000000000000000000000000000000000000000000602082015250565b7f4174206c65617374206f6e65206d696e74657220686173206e6f74206163636560008201527f7074656400000000000000000000000000000000000000000000000000000000602082015250565b7f45524332303a20617070726f76652066726f6d20746865207a65726f2061646460008201527f7265737300000000000000000000000000000000000000000000000000000000602082015250565b7f63616e277420756e6c6f636b0000000000000000000000000000000000000000600082015250565b7f63616e277420617070726f766500000000000000000000000000000000000000600082015250565b7f45524332303a2064656372656173656420616c6c6f77616e63652062656c6f7760008201527f207a65726f000000000000000000000000000000000000000000000000000000602082015250565b7f45524332303a206d696e7420746f20746865207a65726f206164647265737300600082015250565b6139f58161331b565b8114613a0057600080fd5b50565b613a0c81613359565b8114613a1757600080fd5b5056fea2646970667358221220fca48c5a46ff458453c62a91e814a15c9226d6bd01efe2cf26abd2e8c19146f564736f6c63430008040033",
  "linkReferences": {},
  "deployedLinkReferences": {}
}