{
  "_format": "hh-sol-artifact-1",
  "contractName": "IVIRSE",
  "sourceName": "src/solidity/contracts/IVIRSE.sol",
  "abi": [
    {
      "inputs": [],
      "stateMutability": "nonpayable",
      "type": "constructor"
    },
    {
      "anonymous": false,
      "inputs": [
        {
          "indexed": true,
          "internalType": "address",
          "name": "owner",
          "type": "address"
        },
        {
          "indexed": true,
          "internalType": "address",
          "name": "spender",
          "type": "address"
        },
        {
          "indexed": false,
          "internalType": "uint256",
          "name": "value",
          "type": "uint256"
        }
      ],
      "name": "Approval",
      "type": "event"
    },
    {
      "anonymous": false,
      "inputs": [
        {
          "indexed": true,
          "internalType": "address",
          "name": "_minterAddr",
          "type": "address"
        }
      ],
      "name": "MinterAdded",
      "type": "event"
    },
    {
      "anonymous": false,
      "inputs": [
        {
          "indexed": true,
          "internalType": "address",
          "name": "_minterAddr",
          "type": "address"
        }
      ],
      "name": "MinterRemoved",
      "type": "event"
    },
    {
      "anonymous": false,
      "inputs": [
        {
          "indexed": true,
          "internalType": "address",
          "name": "previousOwner",
          "type": "address"
        },
        {
          "indexed": true,
          "internalType": "address",
          "name": "newOwner",
          "type": "address"
        }
      ],
      "name": "OwnershipTransferred",
      "type": "event"
    },
    {
      "anonymous": false,
      "inputs": [
        {
          "indexed": true,
          "internalType": "address",
          "name": "from",
          "type": "address"
        },
        {
          "indexed": true,
          "internalType": "address",
          "name": "to",
          "type": "address"
        },
        {
          "indexed": false,
          "internalType": "uint256",
          "name": "value",
          "type": "uint256"
        }
      ],
      "name": "Transfer",
      "type": "event"
    },
    {
      "inputs": [
        {
          "internalType": "address",
          "name": "_minterAddr",
          "type": "address"
        }
      ],
      "name": "addMinter",
      "outputs": [],
      "stateMutability": "nonpayable",
      "type": "function"
    },
    {
      "inputs": [
        {
          "internalType": "address",
          "name": "owner",
          "type": "address"
        },
        {
          "internalType": "address",
          "name": "spender",
          "type": "address"
        }
      ],
      "name": "allowance",
      "outputs": [
        {
          "internalType": "uint256",
          "name": "",
          "type": "uint256"
        }
      ],
      "stateMutability": "view",
      "type": "function"
    },
    {
      "inputs": [
        {
          "internalType": "address",
          "name": "spender",
          "type": "address"
        },
        {
          "internalType": "uint256",
          "name": "amount",
          "type": "uint256"
        }
      ],
      "name": "approve",
      "outputs": [
        {
          "internalType": "bool",
          "name": "",
          "type": "bool"
        }
      ],
      "stateMutability": "nonpayable",
      "type": "function"
    },
    {
      "inputs": [
        {
          "internalType": "address",
          "name": "account",
          "type": "address"
        }
      ],
      "name": "balanceOf",
      "outputs": [
        {
          "internalType": "uint256",
          "name": "",
          "type": "uint256"
        }
      ],
      "stateMutability": "view",
      "type": "function"
    },
    {
      "inputs": [
        {
          "internalType": "uint256",
          "name": "amount",
          "type": "uint256"
        }
      ],
      "name": "burn",
      "outputs": [],
      "stateMutability": "nonpayable",
      "type": "function"
    },
    {
      "inputs": [],
      "name": "decimals",
      "outputs": [
        {
          "internalType": "uint8",
          "name": "",
          "type": "uint8"
        }
      ],
      "stateMutability": "view",
      "type": "function"
    },
    {
      "inputs": [
        {
          "internalType": "address",
          "name": "spender",
          "type": "address"
        },
        {
          "internalType": "uint256",
          "name": "subtractedValue",
          "type": "uint256"
        }
      ],
      "name": "decreaseAllowance",
      "outputs": [
        {
          "internalType": "bool",
          "name": "",
          "type": "bool"
        }
      ],
      "stateMutability": "nonpayable",
      "type": "function"
    },
    {
      "inputs": [],
      "name": "getMinters",
      "outputs": [
        {
          "internalType": "address[]",
          "name": "",
          "type": "address[]"
        }
      ],
      "stateMutability": "view",
      "type": "function"
    },
    {
      "inputs": [
        {
          "internalType": "address",
          "name": "spender",
          "type": "address"
        },
        {
          "internalType": "uint256",
          "name": "addedValue",
          "type": "uint256"
        }
      ],
      "name": "increaseAllowance",
      "outputs": [
        {
          "internalType": "bool",
          "name": "",
          "type": "bool"
        }
      ],
      "stateMutability": "nonpayable",
      "type": "function"
    },
    {
      "inputs": [],
      "name": "maxSupply",
      "outputs": [
        {
          "internalType": "uint256",
          "name": "",
          "type": "uint256"
        }
      ],
      "stateMutability": "view",
      "type": "function"
    },
    {
      "inputs": [
        {
          "internalType": "address",
          "name": "account",
          "type": "address"
        },
        {
          "internalType": "uint256",
          "name": "amount",
          "type": "uint256"
        }
      ],
      "name": "mint",
      "outputs": [],
      "stateMutability": "nonpayable",
      "type": "function"
    },
    {
      "inputs": [
        {
          "internalType": "address",
          "name": "account",
          "type": "address"
        },
        {
          "internalType": "uint256",
          "name": "amount",
          "type": "uint256"
        }
      ],
      "name": "mintConsensus",
      "outputs": [],
      "stateMutability": "nonpayable",
      "type": "function"
    },
    {
      "inputs": [
        {
          "internalType": "address",
          "name": "",
          "type": "address"
        }
      ],
      "name": "minter",
      "outputs": [
        {
          "internalType": "bool",
          "name": "",
          "type": "bool"
        }
      ],
      "stateMutability": "view",
      "type": "function"
    },
    {
      "inputs": [],
      "name": "minterConsensus",
      "outputs": [],
      "stateMutability": "nonpayable",
      "type": "function"
    },
    {
      "inputs": [
        {
          "internalType": "address",
          "name": "",
          "type": "address"
        }
      ],
      "name": "minterConsent",
      "outputs": [
        {
          "internalType": "bool",
          "name": "",
          "type": "bool"
        }
      ],
      "stateMutability": "view",
      "type": "function"
    },
    {
      "inputs": [],
      "name": "minterReject",
      "outputs": [],
      "stateMutability": "nonpayable",
      "type": "function"
    },
    {
      "inputs": [],
      "name": "name",
      "outputs": [
        {
          "internalType": "string",
          "name": "",
          "type": "string"
        }
      ],
      "stateMutability": "view",
      "type": "function"
    },
    {
      "inputs": [],
      "name": "owner",
      "outputs": [
        {
          "internalType": "address",
          "name": "",
          "type": "address"
        }
      ],
      "stateMutability": "view",
      "type": "function"
    },
    {
      "inputs": [
        {
          "internalType": "address",
          "name": "_minterAddr",
          "type": "address"
        }
      ],
      "name": "removeMinter",
      "outputs": [],
      "stateMutability": "nonpayable",
      "type": "function"
    },
    {
      "inputs": [],
      "name": "renounceOwnership",
      "outputs": [],
      "stateMutability": "nonpayable",
      "type": "function"
    },
    {
      "inputs": [],
      "name": "symbol",
      "outputs": [
        {
          "internalType": "string",
          "name": "",
          "type": "string"
        }
      ],
      "stateMutability": "view",
      "type": "function"
    },
    {
      "inputs": [],
      "name": "totalSupply",
      "outputs": [
        {
          "internalType": "uint256",
          "name": "",
          "type": "uint256"
        }
      ],
      "stateMutability": "view",
      "type": "function"
    },
    {
      "inputs": [
        {
          "internalType": "address",
          "name": "to",
          "type": "address"
        },
        {
          "internalType": "uint256",
          "name": "amount",
          "type": "uint256"
        }
      ],
      "name": "transfer",
      "outputs": [
        {
          "internalType": "bool",
          "name": "",
          "type": "bool"
        }
      ],
      "stateMutability": "nonpayable",
      "type": "function"
    },
    {
      "inputs": [
        {
          "internalType": "address",
          "name": "from",
          "type": "address"
        },
        {
          "internalType": "address",
          "name": "to",
          "type": "address"
        },
        {
          "internalType": "uint256",
          "name": "amount",
          "type": "uint256"
        }
      ],
      "name": "transferFrom",
      "outputs": [
        {
          "internalType": "bool",
          "name": "",
          "type": "bool"
        }
      ],
      "stateMutability": "nonpayable",
      "type": "function"
    },
    {
      "inputs": [
        {
          "internalType": "address",
          "name": "newOwner",
          "type": "address"
        }
      ],
      "name": "transferOwnership",
      "outputs": [],
      "stateMutability": "nonpayable",
      "type": "function"
    }
  ],
  "bytecode": "0x60806040523480156200001157600080fd5b506040518060400160405280600a81526020017f495649525345436f696e000000000000000000000000000000000000000000008152506040518060400160405280600381526020017f495649000000000000000000000000000000000000000000000000000000000081525081600390805190602001906200009692919062000495565b508060049080519060200190620000af92919062000495565b505050620000d2620000c66200012560201b60201c565b6200012d60201b60201c565b60006012600a620000e4919062000643565b9050806334fb5e38620000f8919062000780565b6006819055506200011e620001126200012560201b60201c565b620001f360201b60201c565b50620008de565b600033905090565b6000600560009054906101000a900473ffffffffffffffffffffffffffffffffffffffff16905081600560006101000a81548173ffffffffffffffffffffffffffffffffffffffff021916908373ffffffffffffffffffffffffffffffffffffffff1602179055508173ffffffffffffffffffffffffffffffffffffffff168173ffffffffffffffffffffffffffffffffffffffff167f8be0079c531659141344cd1fd0a4f28419497f9722a3daafe3b4186f6b6457e060405160405180910390a35050565b620002036200012560201b60201c565b73ffffffffffffffffffffffffffffffffffffffff16620002296200046b60201b60201c565b73ffffffffffffffffffffffffffffffffffffffff161462000282576040517f08c379a00000000000000000000000000000000000000000000000000000000081526004016200027990620005b5565b60405180910390fd5b600860008273ffffffffffffffffffffffffffffffffffffffff1673ffffffffffffffffffffffffffffffffffffffff16815260200190815260200160002060009054906101000a900460ff161562000312576040517f08c379a0000000000000000000000000000000000000000000000000000000008152600401620003099062000593565b60405180910390fd5b600a819080600181540180825580915050600190039060005260206000200160009091909190916101000a81548173ffffffffffffffffffffffffffffffffffffffff021916908373ffffffffffffffffffffffffffffffffffffffff1602179055506001600860008373ffffffffffffffffffffffffffffffffffffffff1673ffffffffffffffffffffffffffffffffffffffff16815260200190815260200160002060006101000a81548160ff0219169083151502179055506000600960008373ffffffffffffffffffffffffffffffffffffffff1673ffffffffffffffffffffffffffffffffffffffff16815260200190815260200160002060006101000a81548160ff0219169083151502179055508073ffffffffffffffffffffffffffffffffffffffff167f6ae172837ea30b801fbfcdd4108aa1d5bf8ff775444fd70256b44e6bf3dfc3f660405160405180910390a250565b6000600560009054906101000a900473ffffffffffffffffffffffffffffffffffffffff16905090565b828054620004a390620007eb565b90600052602060002090601f016020900481019282620004c7576000855562000513565b82601f10620004e257805160ff191683800117855562000513565b8280016001018555821562000513579182015b8281111562000512578251825591602001919060010190620004f5565b5b50905062000522919062000526565b5090565b5b808211156200054157600081600090555060010162000527565b5090565b600062000554600983620005d7565b915062000561826200088c565b602082019050919050565b60006200057b602083620005d7565b91506200058882620008b5565b602082019050919050565b60006020820190508181036000830152620005ae8162000545565b9050919050565b60006020820190508181036000830152620005d0816200056c565b9050919050565b600082825260208201905092915050565b6000808291508390505b60018511156200063a5780860481111562000612576200061162000821565b5b6001851615620006225780820291505b808102905062000632856200087f565b9450620005f2565b94509492505050565b60006200065082620007e1565b91506200065d83620007e1565b92506200068c7fffffffffffffffffffffffffffffffffffffffffffffffffffffffffffffffff848462000694565b905092915050565b600082620006a6576001905062000779565b81620006b6576000905062000779565b8160018114620006cf5760028114620006da5762000710565b600191505062000779565b60ff841115620006ef57620006ee62000821565b5b8360020a91508482111562000709576200070862000821565b5b5062000779565b5060208310610133831016604e8410600b84101617156200074a5782820a90508381111562000744576200074362000821565b5b62000779565b620007598484846001620005e8565b9250905081840481111562000773576200077262000821565b5b81810290505b9392505050565b60006200078d82620007e1565b91506200079a83620007e1565b9250817fffffffffffffffffffffffffffffffffffffffffffffffffffffffffffffffff0483118215151615620007d657620007d562000821565b5b828202905092915050565b6000819050919050565b600060028204905060018216806200080457607f821691505b602082108114156200081b576200081a62000850565b5b50919050565b7f4e487b7100000000000000000000000000000000000000000000000000000000600052601160045260246000fd5b7f4e487b7100000000000000000000000000000000000000000000000000000000600052602260045260246000fd5b60008160011c9050919050565b7f4973206d696e7465720000000000000000000000000000000000000000000000600082015250565b7f4f776e61626c653a2063616c6c6572206973206e6f7420746865206f776e6572600082015250565b612f9d80620008ee6000396000f3fe608060405234801561001057600080fd5b50600436106101735760003560e01c8063715018a6116100de578063a5c8ebdd11610097578063dd62ed3e11610071578063dd62ed3e14610460578063f1f03e3c14610490578063f2fde38b1461049a578063f50435ee146104b657610173565b8063a5c8ebdd146103e2578063a9059cbb14610412578063d5abeb011461044257610173565b8063715018a614610334578063806ca6221461033e5780638da5cb5b1461035a57806395d89b4114610378578063983b2d5614610396578063a457c2d7146103b257610173565b80633950935111610130578063395093511461024e5780633dd08c381461027e57806340c10f19146102ae57806342966c68146102ca5780636b32810b146102e657806370a082311461030457610173565b806306fdde0314610178578063095ea7b31461019657806318160ddd146101c657806323b872dd146101e45780633092afd514610214578063313ce56714610230575b600080fd5b6101806104c0565b60405161018d9190612615565b60405180910390f35b6101b060048036038101906101ab919061220b565b610552565b6040516101bd91906125fa565b60405180910390f35b6101ce610575565b6040516101db9190612857565b60405180910390f35b6101fe60048036038101906101f991906121bc565b61057f565b60405161020b91906125fa565b60405180910390f35b61022e60048036038101906102299190612157565b6105ae565b005b610238610a6d565b6040516102459190612872565b60405180910390f35b6102686004803603810190610263919061220b565b610a76565b60405161027591906125fa565b60405180910390f35b61029860048036038101906102939190612157565b610b20565b6040516102a591906125fa565b60405180910390f35b6102c860048036038101906102c3919061220b565b610b40565b005b6102e460048036038101906102df9190612247565b610c2a565b005b6102ee610c3e565b6040516102fb91906125d8565b60405180910390f35b61031e60048036038101906103199190612157565b610ccc565b60405161032b9190612857565b60405180910390f35b61033c610d14565b005b6103586004803603810190610353919061220b565b610d9c565b005b610362611098565b60405161036f91906125bd565b60405180910390f35b6103806110c2565b60405161038d9190612615565b60405180910390f35b6103b060048036038101906103ab9190612157565b611154565b005b6103cc60048036038101906103c7919061220b565b6113b6565b6040516103d991906125fa565b60405180910390f35b6103fc60048036038101906103f79190612157565b6114a0565b60405161040991906125fa565b60405180910390f35b61042c6004803603810190610427919061220b565b6114c0565b60405161043991906125fa565b60405180910390f35b61044a6114e3565b6040516104579190612857565b60405180910390f35b61047a60048036038101906104759190612180565b6114ed565b6040516104879190612857565b60405180910390f35b610498611574565b005b6104b460048036038101906104af9190612157565b611661565b005b6104be611759565b005b6060600380546104cf906129f4565b80601f01602080910402602001604051908101604052809291908181526020018280546104fb906129f4565b80156105485780601f1061051d57610100808354040283529160200191610548565b820191906000526020600020905b81548152906001019060200180831161052b57829003601f168201915b5050505050905090565b60008061055d611846565b905061056a81858561184e565b600191505092915050565b6000600254905090565b60008061058a611846565b9050610597858285611a19565b6105a2858585611aa5565b60019150509392505050565b6105b6611846565b73ffffffffffffffffffffffffffffffffffffffff166105d4611098565b73ffffffffffffffffffffffffffffffffffffffff161461062a576040517f08c379a000000000000000000000000000000000000000000000000000000000815260040161062190612777565b60405180910390fd5b600860008273ffffffffffffffffffffffffffffffffffffffff1673ffffffffffffffffffffffffffffffffffffffff16815260200190815260200160002060009054906101000a900460ff166106b6576040517f08c379a00000000000000000000000000000000000000000000000000000000081526004016106ad90612737565b60405180910390fd5b6000600860008373ffffffffffffffffffffffffffffffffffffffff1673ffffffffffffffffffffffffffffffffffffffff16815260200190815260200160002060006101000a81548160ff0219169083151502179055506001600960008373ffffffffffffffffffffffffffffffffffffffff1673ffffffffffffffffffffffffffffffffffffffff16815260200190815260200160002060006101000a81548160ff0219169083151502179055508073ffffffffffffffffffffffffffffffffffffffff167fe94479a9f7e1952cc78f2d6baab678adc1b772d936c6583def489e524cb6669260405160405180910390a26000805b600a80549050821015610a6857600a82815481106107f4577f4e487b7100000000000000000000000000000000000000000000000000000000600052603260045260246000fd5b9060005260206000200160009054906101000a900473ffffffffffffffffffffffffffffffffffffffff169050600860008273ffffffffffffffffffffffffffffffffffffffff1673ffffffffffffffffffffffffffffffffffffffff16815260200190815260200160002060009054906101000a900460ff16610a5457600a6001600a805490506108869190612938565b815481106108bd577f4e487b7100000000000000000000000000000000000000000000000000000000600052603260045260246000fd5b9060005260206000200160009054906101000a900473ffffffffffffffffffffffffffffffffffffffff16600a8381548110610922577f4e487b7100000000000000000000000000000000000000000000000000000000600052603260045260246000fd5b9060005260206000200160006101000a81548173ffffffffffffffffffffffffffffffffffffffff021916908373ffffffffffffffffffffffffffffffffffffffff160217905550600a6001600a8054905061097e9190612938565b815481106109b5577f4e487b7100000000000000000000000000000000000000000000000000000000600052603260045260246000fd5b9060005260206000200160006101000a81549073ffffffffffffffffffffffffffffffffffffffff0219169055600a805480610a1a577f4e487b7100000000000000000000000000000000000000000000000000000000600052603160045260246000fd5b6001900381819060005260206000200160006101000a81549073ffffffffffffffffffffffffffffffffffffffff02191690559055610a63565b8180610a5f90612a26565b9250505b6107ad565b505050565b60006012905090565b600080610a81611846565b9050610b15818585600160008673ffffffffffffffffffffffffffffffffffffffff1673ffffffffffffffffffffffffffffffffffffffff16815260200190815260200160002060008973ffffffffffffffffffffffffffffffffffffffff1673ffffffffffffffffffffffffffffffffffffffff16815260200190815260200160002054610b1091906128e2565b61184e565b600191505092915050565b60086020528060005260406000206000915054906101000a900460ff1681565b610b48611846565b73ffffffffffffffffffffffffffffffffffffffff16610b66611098565b73ffffffffffffffffffffffffffffffffffffffff1614610bbc576040517f08c379a0000000000000000000000000000000000000000000000000000000008152600401610bb390612777565b60405180910390fd5b610bc4610575565b60078190555060065481600754610bdb91906128e2565b1115610c1c576040517f08c379a0000000000000000000000000000000000000000000000000000000008152600401610c1390612757565b60405180910390fd5b610c268282611d26565b5050565b610c3b610c35611846565b82611e86565b50565b6060600a805480602002602001604051908101604052809291908181526020018280548015610cc257602002820191906000526020600020905b8160009054906101000a900473ffffffffffffffffffffffffffffffffffffffff1673ffffffffffffffffffffffffffffffffffffffff1681526020019060010190808311610c78575b5050505050905090565b60008060008373ffffffffffffffffffffffffffffffffffffffff1673ffffffffffffffffffffffffffffffffffffffff168152602001908152602001600020549050919050565b610d1c611846565b73ffffffffffffffffffffffffffffffffffffffff16610d3a611098565b73ffffffffffffffffffffffffffffffffffffffff1614610d90576040517f08c379a0000000000000000000000000000000000000000000000000000000008152600401610d8790612777565b60405180910390fd5b610d9a600061205d565b565b600860003373ffffffffffffffffffffffffffffffffffffffff1673ffffffffffffffffffffffffffffffffffffffff16815260200190815260200160002060009054906101000a900460ff16610e28576040517f08c379a0000000000000000000000000000000000000000000000000000000008152600401610e1f906126f7565b60405180910390fd5b610e30610575565b60078190555060065481600754610e4791906128e2565b1115610e88576040517f08c379a0000000000000000000000000000000000000000000000000000000008152600401610e7f90612757565b60405180910390fd5b6000806000600a805490509050600092505b80831015610fa857600a8381548110610edc577f4e487b7100000000000000000000000000000000000000000000000000000000600052603260045260246000fd5b9060005260206000200160009054906101000a900473ffffffffffffffffffffffffffffffffffffffff169150600960008373ffffffffffffffffffffffffffffffffffffffff1673ffffffffffffffffffffffffffffffffffffffff16815260200190815260200160002060009054906101000a900460ff16610f95576040517f08c379a0000000000000000000000000000000000000000000000000000000008152600401610f8c906127d7565b60405180910390fd5b8280610fa090612a26565b935050610e9a565b610fb28585611d26565b600092505b8083101561109157600a8381548110610ff9577f4e487b7100000000000000000000000000000000000000000000000000000000600052603260045260246000fd5b9060005260206000200160009054906101000a900473ffffffffffffffffffffffffffffffffffffffff1691506000600960008473ffffffffffffffffffffffffffffffffffffffff1673ffffffffffffffffffffffffffffffffffffffff16815260200190815260200160002060006101000a81548160ff021916908315150217905550828061108990612a26565b935050610fb7565b5050505050565b6000600560009054906101000a900473ffffffffffffffffffffffffffffffffffffffff16905090565b6060600480546110d1906129f4565b80601f01602080910402602001604051908101604052809291908181526020018280546110fd906129f4565b801561114a5780601f1061111f5761010080835404028352916020019161114a565b820191906000526020600020905b81548152906001019060200180831161112d57829003601f168201915b5050505050905090565b61115c611846565b73ffffffffffffffffffffffffffffffffffffffff1661117a611098565b73ffffffffffffffffffffffffffffffffffffffff16146111d0576040517f08c379a00000000000000000000000000000000000000000000000000000000081526004016111c790612777565b60405180910390fd5b600860008273ffffffffffffffffffffffffffffffffffffffff1673ffffffffffffffffffffffffffffffffffffffff16815260200190815260200160002060009054906101000a900460ff161561125d576040517f08c379a000000000000000000000000000000000000000000000000000000000815260040161125490612717565b60405180910390fd5b600a819080600181540180825580915050600190039060005260206000200160009091909190916101000a81548173ffffffffffffffffffffffffffffffffffffffff021916908373ffffffffffffffffffffffffffffffffffffffff1602179055506001600860008373ffffffffffffffffffffffffffffffffffffffff1673ffffffffffffffffffffffffffffffffffffffff16815260200190815260200160002060006101000a81548160ff0219169083151502179055506000600960008373ffffffffffffffffffffffffffffffffffffffff1673ffffffffffffffffffffffffffffffffffffffff16815260200190815260200160002060006101000a81548160ff0219169083151502179055508073ffffffffffffffffffffffffffffffffffffffff167f6ae172837ea30b801fbfcdd4108aa1d5bf8ff775444fd70256b44e6bf3dfc3f660405160405180910390a250565b6000806113c1611846565b90506000600160008373ffffffffffffffffffffffffffffffffffffffff1673ffffffffffffffffffffffffffffffffffffffff16815260200190815260200160002060008673ffffffffffffffffffffffffffffffffffffffff1673ffffffffffffffffffffffffffffffffffffffff16815260200190815260200160002054905083811015611487576040517f08c379a000000000000000000000000000000000000000000000000000000000815260040161147e90612817565b60405180910390fd5b611494828686840361184e565b60019250505092915050565b60096020528060005260406000206000915054906101000a900460ff1681565b6000806114cb611846565b90506114d8818585611aa5565b600191505092915050565b6000600654905090565b6000600160008473ffffffffffffffffffffffffffffffffffffffff1673ffffffffffffffffffffffffffffffffffffffff16815260200190815260200160002060008373ffffffffffffffffffffffffffffffffffffffff1673ffffffffffffffffffffffffffffffffffffffff16815260200190815260200160002054905092915050565b600860003373ffffffffffffffffffffffffffffffffffffffff1673ffffffffffffffffffffffffffffffffffffffff16815260200190815260200160002060009054906101000a900460ff16611600576040517f08c379a00000000000000000000000000000000000000000000000000000000081526004016115f7906126f7565b60405180910390fd5b60016009600061160e611846565b73ffffffffffffffffffffffffffffffffffffffff1673ffffffffffffffffffffffffffffffffffffffff16815260200190815260200160002060006101000a81548160ff021916908315150217905550565b611669611846565b73ffffffffffffffffffffffffffffffffffffffff16611687611098565b73ffffffffffffffffffffffffffffffffffffffff16146116dd576040517f08c379a00000000000000000000000000000000000000000000000000000000081526004016116d490612777565b60405180910390fd5b600073ffffffffffffffffffffffffffffffffffffffff168173ffffffffffffffffffffffffffffffffffffffff16141561174d576040517f08c379a000000000000000000000000000000000000000000000000000000000815260040161174490612677565b60405180910390fd5b6117568161205d565b50565b600860003373ffffffffffffffffffffffffffffffffffffffff1673ffffffffffffffffffffffffffffffffffffffff16815260200190815260200160002060009054906101000a900460ff166117e5576040517f08c379a00000000000000000000000000000000000000000000000000000000081526004016117dc906126f7565b60405180910390fd5b6000600960006117f3611846565b73ffffffffffffffffffffffffffffffffffffffff1673ffffffffffffffffffffffffffffffffffffffff16815260200190815260200160002060006101000a81548160ff021916908315150217905550565b600033905090565b600073ffffffffffffffffffffffffffffffffffffffff168373ffffffffffffffffffffffffffffffffffffffff1614156118be576040517f08c379a00000000000000000000000000000000000000000000000000000000081526004016118b5906127f7565b60405180910390fd5b600073ffffffffffffffffffffffffffffffffffffffff168273ffffffffffffffffffffffffffffffffffffffff16141561192e576040517f08c379a000000000000000000000000000000000000000000000000000000000815260040161192590612697565b60405180910390fd5b80600160008573ffffffffffffffffffffffffffffffffffffffff1673ffffffffffffffffffffffffffffffffffffffff16815260200190815260200160002060008473ffffffffffffffffffffffffffffffffffffffff1673ffffffffffffffffffffffffffffffffffffffff168152602001908152602001600020819055508173ffffffffffffffffffffffffffffffffffffffff168373ffffffffffffffffffffffffffffffffffffffff167f8c5be1e5ebec7d5bd14f71427d1e84f3dd0314c0f7b2291e5b200ac8c7c3b92583604051611a0c9190612857565b60405180910390a3505050565b6000611a2584846114ed565b90507fffffffffffffffffffffffffffffffffffffffffffffffffffffffffffffffff8114611a9f5781811015611a91576040517f08c379a0000000000000000000000000000000000000000000000000000000008152600401611a88906126b7565b60405180910390fd5b611a9e848484840361184e565b5b50505050565b600073ffffffffffffffffffffffffffffffffffffffff168373ffffffffffffffffffffffffffffffffffffffff161415611b15576040517f08c379a0000000000000000000000000000000000000000000000000000000008152600401611b0c906127b7565b60405180910390fd5b600073ffffffffffffffffffffffffffffffffffffffff168273ffffffffffffffffffffffffffffffffffffffff161415611b85576040517f08c379a0000000000000000000000000000000000000000000000000000000008152600401611b7c90612637565b60405180910390fd5b611b90838383612123565b60008060008573ffffffffffffffffffffffffffffffffffffffff1673ffffffffffffffffffffffffffffffffffffffff16815260200190815260200160002054905081811015611c16576040517f08c379a0000000000000000000000000000000000000000000000000000000008152600401611c0d906126d7565b60405180910390fd5b8181036000808673ffffffffffffffffffffffffffffffffffffffff1673ffffffffffffffffffffffffffffffffffffffff16815260200190815260200160002081905550816000808573ffffffffffffffffffffffffffffffffffffffff1673ffffffffffffffffffffffffffffffffffffffff1681526020019081526020016000206000828254611ca991906128e2565b925050819055508273ffffffffffffffffffffffffffffffffffffffff168473ffffffffffffffffffffffffffffffffffffffff167fddf252ad1be2c89b69c2b068fc378daa952ba7f163c4a11628f55a4df523b3ef84604051611d0d9190612857565b60405180910390a3611d20848484612128565b50505050565b600073ffffffffffffffffffffffffffffffffffffffff168273ffffffffffffffffffffffffffffffffffffffff161415611d96576040517f08c379a0000000000000000000000000000000000000000000000000000000008152600401611d8d90612837565b60405180910390fd5b611da260008383612123565b8060026000828254611db491906128e2565b92505081905550806000808473ffffffffffffffffffffffffffffffffffffffff1673ffffffffffffffffffffffffffffffffffffffff1681526020019081526020016000206000828254611e0991906128e2565b925050819055508173ffffffffffffffffffffffffffffffffffffffff16600073ffffffffffffffffffffffffffffffffffffffff167fddf252ad1be2c89b69c2b068fc378daa952ba7f163c4a11628f55a4df523b3ef83604051611e6e9190612857565b60405180910390a3611e8260008383612128565b5050565b600073ffffffffffffffffffffffffffffffffffffffff168273ffffffffffffffffffffffffffffffffffffffff161415611ef6576040517f08c379a0000000000000000000000000000000000000000000000000000000008152600401611eed90612797565b60405180910390fd5b611f0282600083612123565b60008060008473ffffffffffffffffffffffffffffffffffffffff1673ffffffffffffffffffffffffffffffffffffffff16815260200190815260200160002054905081811015611f88576040517f08c379a0000000000000000000000000000000000000000000000000000000008152600401611f7f90612657565b60405180910390fd5b8181036000808573ffffffffffffffffffffffffffffffffffffffff1673ffffffffffffffffffffffffffffffffffffffff168152602001908152602001600020819055508160026000828254611fdf9190612938565b92505081905550600073ffffffffffffffffffffffffffffffffffffffff168373ffffffffffffffffffffffffffffffffffffffff167fddf252ad1be2c89b69c2b068fc378daa952ba7f163c4a11628f55a4df523b3ef846040516120449190612857565b60405180910390a361205883600084612128565b505050565b6000600560009054906101000a900473ffffffffffffffffffffffffffffffffffffffff16905081600560006101000a81548173ffffffffffffffffffffffffffffffffffffffff021916908373ffffffffffffffffffffffffffffffffffffffff1602179055508173ffffffffffffffffffffffffffffffffffffffff168173ffffffffffffffffffffffffffffffffffffffff167f8be0079c531659141344cd1fd0a4f28419497f9722a3daafe3b4186f6b6457e060405160405180910390a35050565b505050565b505050565b60008135905061213c81612f39565b92915050565b60008135905061215181612f50565b92915050565b60006020828403121561216957600080fd5b60006121778482850161212d565b91505092915050565b6000806040838503121561219357600080fd5b60006121a18582860161212d565b92505060206121b28582860161212d565b9150509250929050565b6000806000606084860312156121d157600080fd5b60006121df8682870161212d565b93505060206121f08682870161212d565b925050604061220186828701612142565b9150509250925092565b6000806040838503121561221e57600080fd5b600061222c8582860161212d565b925050602061223d85828601612142565b9150509250929050565b60006020828403121561225957600080fd5b600061226784828501612142565b91505092915050565b600061227c8383612288565b60208301905092915050565b6122918161296c565b82525050565b6122a08161296c565b82525050565b60006122b18261289d565b6122bb81856128c0565b93506122c68361288d565b8060005b838110156122f75781516122de8882612270565b97506122e9836128b3565b9250506001810190506122ca565b5085935050505092915050565b61230d8161297e565b82525050565b600061231e826128a8565b61232881856128d1565b93506123388185602086016129c1565b61234181612acd565b840191505092915050565b60006123596023836128d1565b915061236482612ade565b604082019050919050565b600061237c6022836128d1565b915061238782612b2d565b604082019050919050565b600061239f6026836128d1565b91506123aa82612b7c565b604082019050919050565b60006123c26022836128d1565b91506123cd82612bcb565b604082019050919050565b60006123e5601d836128d1565b91506123f082612c1a565b602082019050919050565b60006124086026836128d1565b915061241382612c43565b604082019050919050565b600061242b600b836128d1565b915061243682612c92565b602082019050919050565b600061244e6009836128d1565b915061245982612cbb565b602082019050919050565b6000612471600a836128d1565b915061247c82612ce4565b602082019050919050565b60006124946025836128d1565b915061249f82612d0d565b604082019050919050565b60006124b76020836128d1565b91506124c282612d5c565b602082019050919050565b60006124da6021836128d1565b91506124e582612d85565b604082019050919050565b60006124fd6025836128d1565b915061250882612dd4565b604082019050919050565b60006125206024836128d1565b915061252b82612e23565b604082019050919050565b60006125436024836128d1565b915061254e82612e72565b604082019050919050565b60006125666025836128d1565b915061257182612ec1565b604082019050919050565b6000612589601f836128d1565b915061259482612f10565b602082019050919050565b6125a8816129aa565b82525050565b6125b7816129b4565b82525050565b60006020820190506125d26000830184612297565b92915050565b600060208201905081810360008301526125f281846122a6565b905092915050565b600060208201905061260f6000830184612304565b92915050565b6000602082019050818103600083015261262f8184612313565b905092915050565b600060208201905081810360008301526126508161234c565b9050919050565b600060208201905081810360008301526126708161236f565b9050919050565b6000602082019050818103600083015261269081612392565b9050919050565b600060208201905081810360008301526126b0816123b5565b9050919050565b600060208201905081810360008301526126d0816123d8565b9050919050565b600060208201905081810360008301526126f0816123fb565b9050919050565b600060208201905081810360008301526127108161241e565b9050919050565b6000602082019050818103600083015261273081612441565b9050919050565b6000602082019050818103600083015261275081612464565b9050919050565b6000602082019050818103600083015261277081612487565b9050919050565b60006020820190508181036000830152612790816124aa565b9050919050565b600060208201905081810360008301526127b0816124cd565b9050919050565b600060208201905081810360008301526127d0816124f0565b9050919050565b600060208201905081810360008301526127f081612513565b9050919050565b6000602082019050818103600083015261281081612536565b9050919050565b6000602082019050818103600083015261283081612559565b9050919050565b600060208201905081810360008301526128508161257c565b9050919050565b600060208201905061286c600083018461259f565b92915050565b600060208201905061288760008301846125ae565b92915050565b6000819050602082019050919050565b600081519050919050565b600081519050919050565b6000602082019050919050565b600082825260208201905092915050565b600082825260208201905092915050565b60006128ed826129aa565b91506128f8836129aa565b9250827fffffffffffffffffffffffffffffffffffffffffffffffffffffffffffffffff0382111561292d5761292c612a6f565b5b828201905092915050565b6000612943826129aa565b915061294e836129aa565b92508282101561296157612960612a6f565b5b828203905092915050565b60006129778261298a565b9050919050565b60008115159050919050565b600073ffffffffffffffffffffffffffffffffffffffff82169050919050565b6000819050919050565b600060ff82169050919050565b60005b838110156129df5780820151818401526020810190506129c4565b838111156129ee576000848401525b50505050565b60006002820490506001821680612a0c57607f821691505b60208210811415612a2057612a1f612a9e565b5b50919050565b6000612a31826129aa565b91507fffffffffffffffffffffffffffffffffffffffffffffffffffffffffffffffff821415612a6457612a63612a6f565b5b600182019050919050565b7f4e487b7100000000000000000000000000000000000000000000000000000000600052601160045260246000fd5b7f4e487b7100000000000000000000000000000000000000000000000000000000600052602260045260246000fd5b6000601f19601f8301169050919050565b7f45524332303a207472616e7366657220746f20746865207a65726f206164647260008201527f6573730000000000000000000000000000000000000000000000000000000000602082015250565b7f45524332303a206275726e20616d6f756e7420657863656564732062616c616e60008201527f6365000000000000000000000000000000000000000000000000000000000000602082015250565b7f4f776e61626c653a206e6577206f776e657220697320746865207a65726f206160008201527f6464726573730000000000000000000000000000000000000000000000000000602082015250565b7f45524332303a20617070726f766520746f20746865207a65726f20616464726560008201527f7373000000000000000000000000000000000000000000000000000000000000602082015250565b7f45524332303a20696e73756666696369656e7420616c6c6f77616e6365000000600082015250565b7f45524332303a207472616e7366657220616d6f756e742065786365656473206260008201527f616c616e63650000000000000000000000000000000000000000000000000000602082015250565b7f4f6e6c792d6d696e746572000000000000000000000000000000000000000000600082015250565b7f4973206d696e7465720000000000000000000000000000000000000000000000600082015250565b7f4e6f74206d696e74657200000000000000000000000000000000000000000000600082015250565b7f45524332303a206d696e7420616d6f756e742065786365656473206d6178207360008201527f7570706c79000000000000000000000000000000000000000000000000000000602082015250565b7f4f776e61626c653a2063616c6c6572206973206e6f7420746865206f776e6572600082015250565b7f45524332303a206275726e2066726f6d20746865207a65726f2061646472657360008201527f7300000000000000000000000000000000000000000000000000000000000000602082015250565b7f45524332303a207472616e736665722066726f6d20746865207a65726f20616460008201527f6472657373000000000000000000000000000000000000000000000000000000602082015250565b7f4174206c65617374206f6e65206d696e74657220686173206e6f74206163636560008201527f7074656400000000000000000000000000000000000000000000000000000000602082015250565b7f45524332303a20617070726f76652066726f6d20746865207a65726f2061646460008201527f7265737300000000000000000000000000000000000000000000000000000000602082015250565b7f45524332303a2064656372656173656420616c6c6f77616e63652062656c6f7760008201527f207a65726f000000000000000000000000000000000000000000000000000000602082015250565b7f45524332303a206d696e7420746f20746865207a65726f206164647265737300600082015250565b612f428161296c565b8114612f4d57600080fd5b50565b612f59816129aa565b8114612f6457600080fd5b5056fea26469706673582212202d379ad6644afb5701a31e76e227bbada2c9eb56de5fe8d64536587460e6981f64736f6c63430008040033",
  "linkReferences": {},
  "deployedLinkReferences": {}
}